:020000040000FA
:06000000020E7702050864
:03002B00020E368C
:03003300020A9F1F
:03004300020CBCF0
:03004B00020AEABC
:030053000204693B
:03005B00020AF99D
:03006300020B0885
:03006B00020A8501
:100083000204A10101FF01010503010F10FEFF039B
:100093000003000300030003000300030003000345
:1000A3000005000A00140028004F009E000000967F
:1000B300179617961796175816521696176D24000B
:1000C300000000CF24000000000C0000000C000121
:1000D300E304FF010001020028120000009B1264E8
:1000E300000202000800000502071E02051E020AA4
:1000F30003B80B02803E0103320002F1FF02020645
:10010300120EC3700418181822120EA5700D74FF76
:10011300F61819F61819F61819F622E7548066F638
:10012300120F0C700F120F0270F014F608F608F697
:1001330008F680D1120F02700CF608F608768008D4
:10014300E6447F80EC120D41700C120D2C60BFE66B
:100153005480F6E480BB120D2C700519191980A583
:10016300E869700C763F18768018F618F6E8F922DD
:10017300E6CDC0E018ECC0E0E633CD33CDD313F6C3
:10018300E719FCE7191933CC33C3947F400ECD9D97
:10019300502408E65480F6E418F6800FF4043D1466
:1001A300501408E6447FF6187680E418F618F6D063
:1001B300E0FCD0E0FD22CCD313CCFD18E4C6CBC0C9
:1001C300E018E4C6CAC0E00808ED08C633E613F633
:1001D30018E433C675F003C3CA97CA09CB97CB1982
:1001E3009C40047D08802EBD00030202AC16B6FFBE
:1001F300050606081618C3CA33CACB33CB33CA273E
:10020300CA09CB37CB193CC37D08803E187D082033
:10021300E75CC633C6CA33CACB33CB33DDF1D5F083
:10022300EB30E77BCA97CA09CB974ACB199C406F3F
:100233004B7025E620E0218066187D08C3CA97CA63
:1002430009CB97CB199CD3C633C6CA33CACB33CB9E
:100253003350C9DDE7D5F0E1D3E4C636C608C63668
:10026300C608C636C608C636C61818188031C3CAAB
:1002730097CA09CB97CB199CB34097C633C6CA33E9
:10028300CACB33CB33DD34D5F02EC6A2E0C640C88B
:10029300CA27CA09CB37194A70BECB3CB480B90808
:1002A30008E63308E633601F181818D0E0FAD0E0E8
:1002B300FBD0E0FCD0E0FD22187D08CA27CA09CB99
:1002C30037CB193CD3808013F618E4B67F11F618A8
:1002D300B6FF0EF618C60470D20808768080CAF6F8
:1002E30018F618F680C500120EC3604F120EA560F3
:1002F30012E7548066F6120D297011120F02703B3B
:10030300090909F4F618F618F618F622120D3E70CC
:1003130015120F0C08080860EAE6447FF618768089
:1003230018E4F618F622120F0C6016120F02701260
:10033300E4F608F608F608E65480F60909091818E1
:100343001822EAC0E0EBC0E0ECC0E0EDC0E0E687D5
:10035300F0A4FBACF008E687F0A42CFCE435F0FA3B
:100363001809E687F0A42C4B60027401CA35F0FC2F
:10037300E433FB09E687F0D2F7A42CCB35F0FC1964
:1003830008E687F0A42BCC35F0FBE433FD0819E62F
:1003930087F0D2E7A42C4ACB35F0CD3400FC09E634
:1003A30087F0D2E7A42DCC35F0FDE433FA0918E643
:1003B30087F0D2F7A42CCD35F0CA3400FC08E687C9
:1003C300F0D2E7D2F7A42ACC35F07A7E20E70B0AE5
:1003D300CB33CBCD33CDCC33CC33CB3350147004B0
:1003E300ED30E00ED2F1E4CD3DCDCC3CCC3B50051D
:1003F300DA05C2F1EB547FC63308E63392F0FBE72C
:100403003309E733C39A502D2B70190C0D4C4D70E3
:10041300151806E608C333700D20F10AA2F013F68F
:10042300E418800B4024E4F630F002768018F618C6
:10043300F618F68024D33B14501074FFA2F013F681
:10044300187680E418F618F6800FA2F013F618E673
:100453003303F618ECF618EDF6D0E0FDD0E0FCD04F
:10046300E0FBD0E0FA22C0E074F2120782E5A7F8BD
:10047300E5A1F95854106008121F8853A1EF8019A1
:10048300E8A2E0C0D0E9A2E092F0120D67158182E4
:10049300F0500612203653A1FE7F0102083EC0E051
:1004A30074F21207829061A4E0F8759B00E59158FD
:1004B300540860087591F7121FD6802AE5915854A5
:1004C3001060087591EF121FDC801BE8A2E0C0D01A
:1004D300E591A2E092F0120D67158182F05007E0DA
:1004E300C2E0F01221089061A3E0F8E5E958540452
:1004F300600E1220DE75E9FB906193E0A2E640F204
:100503007F0102083EC0E074F21207829061A5E009
:10051300F8E5BF585404600653BFFB1221207F0146
:1005230002083EC3E498F8E499F91205678026C3EC
:10053300E49AFAE49BFBE920E7E9120567E498F8FB
:10054300E499F922C3E498F8E499F9120567E49869
:10055300F8E499F9C3E49AFAE49BFB22EB20E7CF92
:10056300E920E7E0B90010BB0008E88AF084F8AAA4
:10057300F022E4FBC8FA22EB70227B10C833C8C90F
:1005830033C9335007C39AC3DBF280069A50012A5A
:10059300DBEAC833F4C8C933F4C9FA2275F008E4B6
:1005A300C833C8C933C933C99AC99B5004C92AC9B6
:1005B3003BD5F0ECFBC833F4C8E4C9FA22080808B9
:1005C300EAC0E0EBC0E086F0E7A4FA180986F0E79A
:1005D300A42AFA180986F0E7A42AFA180986F0E78C
:1005E300A42AFA1986F0E7A4FBE5F02AFA1908868B
:1005F300F0E7A42BFBE5F03AFA190886F0E7A42B01
:10060300FBE5F03AFA18180986F0E7A4C5F02BFBCE
:10061300E43AFA1908E7C5F0C6A426F6E5F03BFB71
:10062300E43AFA1886F0E7A4F6E5F00826F6E43B88
:1006330008F6E43A08F6D0E0FBD0E0FA22E4CFC0B3
:10064300E0E4CEC0E0E4CDC0E0E4CCC0E075F0204F
:10065300C3E633F608E633F608E633F608E633F680
:10066300181818EC33FCED33FDEE33FEEF33FFC304
:10067300EC9709ED9709EE9709EF97191919400FB0
:10068300FFEC97FC09ED97FD09EE97FE191906D5C6
:10069300F0BEECF709EDF709EEF709EFF7191919B1
:1006A300D0E0FCD0E0FDD0E0FED0E0FF222510C575
:1006B30082C0E0E51134FFC583C0E0E510C3958235
:1006C30024F810AF08858311858210800885831173
:1006D300858210D2AFCEF0A3E520F0A37808E60818
:1006E300F0A3DEFAEFF0A3E58124FAF8E608F0A31D
:1006F300E608F0A3E608F0A30808E608F0A3E60876
:10070300F0A315811581D0E0FED0E0F815811581A5
:100713001581E8C0E0EEC0E02212073330F0051285
:1007230007788000C6CC18C6CB18C6CA18C6F922EB
:10073300E4C9C608CAC608CBC6D3330308CCC6333C
:1007430092F0C3947F402E94184019C9B90704CA84
:10075300CBCC225025C309CA33CACB33CBCC33CC41
:1007630033D9F422F4600DC9CCC313CB13CBCA1312
:10077300CAD9F6CC22E4FCFBFA2214FCFBFA22C011
:10078300D02510C582C0E0E51134FFC583C0E0E584
:1007930010C3958224F310AF0885831185821080DE
:1007A30008858311858210D2AFC8F0A3E9F0A3EACC
:1007B300F0A3EBF0A37908E709F0A3D8FAECF0A3D0
:1007C300EDF0A3EEF0A3EFF0A3D0E0F0A3D0E0F0C0
:1007D300A3D0E0F0A3E520F0A3E5F0F0A322E979AC
:1007E3009EC608CAC608CBC608CCC6C37020799675
:1007F300CACBCC7019798ECBCC70137986CC700EA2
:10080300F9802ACA33CACB33CBCC33CC331930E784
:10081300F2CCCBCA3350147004EA30E00DE4CA3A88
:10082300CACB3BCBCC3CCC500209C3E913C6CC1892
:100833002313C6CB18C6CA18C6F92285118385109F
:1008430082E0C0E0A3E0F9A3E0FAA3E0FBA3780809
:10085300E0F608A3DFFAE0FCA3E0FDA3E0FEA3E0DB
:10086300FFA3E0C0E0A3E0C0E0A3E0F5D0A3E0F580
:1008730020A3E0A3F5F010AF0885831185821080D3
:1008830008858311858210D2AFD082D083D0E0F85F
:10089300D0E032120EF7B900030208D8E49002FF49
:1008A300786179188002F0A3D8FCD9FA901A5FAA6C
:1008B30082AB83900086787E79018015E493A3ACA4
:1008C30082AD838A828B83F0A3AA82AB838C828DD1
:1008D30083D8E9D9E77582F67583EC740312093A74
:1008E3007582DE758323740012093AD083D082ECBB
:1008F300C0E0EDC0E0E493A3FCE493A3FDED4C6002
:100903000D120A10EC24FFFCED34FFFD80EFE4939D
:10091300A3FCE493A3FDED4C600D120B44EC24FF08
:10092300FCED34FFFD80EFD0E0FDD0E0FCE493A3C9
:10093300C0E0E493C0E022C0F0F5F0E59F5407C0A7
:10094300E0E59F54F845F0D0F0F59FE473859FF000
:1009530053F0F8D0E045F0F59F22D083D082E59F95
:100963005407C0E0E493C0E0740193C0E0740293C1
:100973005407C0F0F5F0E59F54F845F0D0F0F59F2B
:1009830022D083D082E9C0E0E493A3C386F0C5F00C
:1009930095F0F908E493A386F0C5F095F0700BE4A5
:1009A30093A3C3994005E9048002A3E475F002A46C
:1009B3002582F582E5F03583F583D0E0F9E493A34E
:1009C300C0E0E493C0E022851183851082E0A3FE9A
:1009D300E0A3F5207808E0A3F608DFFAE0A3FFE040
:1009E300A3C0E0E0A3C0E0E0A3C0E0E0A3C0E0E078
:1009F300A3C0E010AF08858210858311800885822B
:100A030010858311D2AFD083D082020950C0E0C3D6
:100A1300E49396087401939618400FE49366700864
:100A230008740193661870007019A3A3C3E4939626
:100A3300087401939618A3A3400DD0E0D0E0D0E052
:100A430002092AA3A3A3A3A3A3D0E022D083D08225
:100A5300C5F0E493A3C5F0C395F0F5F0E493A3C305
:100A630095F04005E5F0048001E475F002A42582C9
:100A7300F582E5F03583F583E493A3C0E0E493C006
:100A8300E022C0E074F2120782E589A2E15003126A
:100A93001E2C758900C2C57F0102083EC0E074F2B6
:100AA300120782E58BA2E05003121E2C758B00C245
:100AB300E87F0102083E7404800474028000CCC005
:100AC300E0EDC0E0E510C39CCCAD1150011D10AFAB
:100AD300068C108D1180068C108D11D2AF120BBBBA
:100AE300D0E0FDD0E0FC22C0E074F2120782121EB7
:100AF300B07F0102083EC0E074F2120782121EB6F4
:100B03007F0102083EC0E074F2120782121EBC7F0E
:100B13000102083E74028000CCC0E0EDC0E0E510A5
:100B2300C39CCCAD1150011D10AF068C108D1180EC
:100B3300068C108D11D2AF120B99D0E0FDD0E0FCE2
:100B430022C0E0C0F088F0E4936670080874019353
:100B530066187000A8F0A3A3700BD0F0D0E0D0E02B
:100B6300D0E002092AA3A3D0F0D0E022D083D08220
:100B7300CCC0E0E493A36006120C1A1470FAE49359
:100B8300A36006120CD31470FAD0E0FCE493A3C064
:100B9300E0E493C0E022CAC0E0E493A3C582CCC5DD
:100BA30082C583CDC583F0A3C582CCC582C583CD61
:100BB300C583DAE5D0E0CA22CAC0E0E0A3C582CC8F
:100BC300C582C583CDC583F0A3C582CCC582C58349
:100BD300CDC583DAE6D0E0CA22C008C3E096F508A3
:100BE30008A3E096420808A3E096420808A3E0960B
:100BF30045087001D3D0082270090808082260163E
:100C0300181818C6C333C608C633C608C633C60881
:100C1300C633C6D5E0EA22C0E0E493A3D39C5010C8
:100C2300E493A3C39C400AD0E0D0E0D0E0020B8C55
:100C3300A3A3A3D0E0222510F58210AF08F510403E
:100C43000215118008F51040021511D2AF851183EA
:100C5300227404800A74038006740280027401C043
:100C6300E0F404120C39D0E0120ED222BB0102E7E9
:100C730022C082C08389828A83BB0003E08002E4AE
:100C830093D083D08222C0D0251010AF08F5105026
:100C93000205118008F51050020511D2AFD0D02201
:100CA3006016080808C6C313C618C613C618C613A9
:100CB300C618C613C6D5E0EA22C0E074F212078252
:100CC300C2C0E5D1A2E45003121EEC7F0102083E2C
:100CD300C0E0E493A36C7009D0E0D0E0D0E0020B55
:100CE3008CA3A3D0E022251010AF08F51040021505
:100CF300118008F51040021511D2AF22E066701082
:100D030008A3E066700A08A3E066700408A3E0661F
:100D130022C3E09608A3E09608A3E09608A3E09612
:100D2300A2D265D03322181818E6084608700AE6DE
:100D330008C3337005E633F4220822191919E709A9
:100D43004709700AE709C3337005E733F422092220
:100D5300C3E096F008A3E096F008A3E096F008A39A
:100D6300E096F022C0E0E8C0E0E58124FCF8E6A2CA
:100D7300E7D0E0F8D0E022E026F608A3E036F60854
:100D8300A3E036F608A3E036F622E026F008A3E057
:100D930036F008A3E036F008A3E036F02270042210
:100DA300600D18C6C333C608C633C6D5E0F418228F
:100DB300E627F60809E637F60809E637F60809E6EE
:100DC30037F622E657F60809E657F60809E657F616
:100DD3000809E657F622E056F608A3E056F608A3FC
:100DE300E056F608A3E056F622E056F008A3E056D4
:100DF300F008A3E056F008A3E056F022E046F0081E
:100E0300A3E046F008A3E046F008A3E046F022E69C
:100E130047F60809E647F60809E647F60809E647EC
:100E2300F622E4C396F608E496F608E496F608E498
:100E330096F622C0E074F2120782C2C712201E7F08
:100E43000102083EC3E7960809E7960809E79608F2
:100E530009E79622C6F4C608C6F4C608C6F4C6084F
:100E6300C6F4C622C3E09608A3E09608A3E096085A
:100E7300A3E0962275D0007581407510FF751102AD
:100E830000020896600C08C6C313C618C613C6D55D
:100E9300E0F422E6F008A3E6F008A3E6F008A3E6F0
:100EA300F022E7094709C3134709336002E733F424
:100EB30022E0F608A3E0F608A3E0F608A3E0F62292
:100EC300E6084608C3134608336002E633F422CA31
:100ED300C0E0E6F0A308DAFAD0E0FA22E0FAA3E0F1
:100EE300FBA3E0FCA3E0FD22EAF0A3EBF0A3ECF00C
:100EF300A3EDF022E5C754F84401F5C7790122E7D1
:100F0300C33319471947194722E6C333184618460E
:100F13001846222510F582E43511F5832212095D66
:100F23004F280012095D6E280012095D90280012F7
:100F3300095DA2280012095DD0280012095D32293B
:100F43000012095DB7290012095D552A0012095DD7
:100F5300A12A0012095DE02A0012095DFD2A001290
:100F6300095D2C2B0012095D822B0012095D9D2B5C
:100F73000012095DC42B0012095DFF2B0012095DED
:100F83003F2C0012095D602C0012095DB02C001289
:100F9300095D6A2D0012095DEF2D0012095D792E9E
:100FA3000012095D5A2F0012095D872F0012095D97
:100FB300D62F0012095DFE2F0012095D27310012A2
:100FC300095D9F310012095DC5310012095DEB31E6
:100FD3000012095D0F320012095D21320012095D12
:100FE3002B320012095DD5320012095D4133001224
:100FF300095D08340012095D10340012095D9B3449
:101003000012095DCF340012095DDF340012095D5F
:10101300A4350012095D52360012095DB136001283
:10102300095DBE370012095D37380012095D8B3840
:101033000012095D00390012095D9E3A0012095D34
:10104300B23A0012095D143B0012095D993B00128C
:10105300095DE63B0012095D043D0012095DF63DA2
:101063000012095D633E0012095DDF3E0012095D57
:10107300553F0012095D8D3F0012095D6A40001261
:10108300095D8D410012095DEA410012095D334299
:101093000012095D5B420012095DE4420012095D22
:1010A3007A430012095DE0430012095D0544001212
:1010B300095D7E440012095D12450012095DA545D4
:1010C3000012095DC9450012095DED460012095D74
:1010D30000470012095D71470012095D864700123F
:1010E300095DE7470012095D31480012095D6C484C
:1010F3000012095D8D490012095D544B0012095D10
:101103005E4B0012095D684B0012095D724B0012C1
:10111300095D7C4B0012095D964B0012095DA04BE3
:101123000012095DAA4B0012095DB44B0012095D60
:10113300D54B0012095D234C0012095D2D4C0012A2
:10114300095D514C0012095D754C0012095DCE4CCE
:101153000012095D134D0012095D314D0012095D46
:10116300A84D0012095DF24D0012095D284E0012D0
:10117300095DA74E0012095D304F0012095D0D5144
:101183000012095DD5510012095DFB510012095D82
:10119300E3520012095DBB550012095D4857001266
:1011A300095D10590012095D56590012095D805AF4
:1011B3000012095DD15A0012095D3C5B0012095D02
:1011C300465B0012095D0C5D0012095DC05D0012F3
:1011D300095D125E0012095DCE5E0012095D935F28
:1011E3000012095D1E610012095D41610012095D73
:1011F30095610012095D83620012095DB5620012F8
:10120300095D09630012095D0E640012095D5564EE
:101213000012095D9B640012095DFA640012095D06
:1012230047660012095D93660012095D9D6700120F
:10123300095D446A0012095D686A0012095D336C36
:101243000012095D8A6C0012095D866D0012095D4A
:101253000F6E0012095D696E0012095DC96E0012FE
:10126300095D586F0012095DCE6F0012095D397078
:101273000012095DB6870112095D08880112095D34
:10128300F8890112095DA78A0112095DDB8A01123F
:10129300095D058C0112095DBC8E0112095DCA8FBF
:1012A3000112095DA3980112095D5D9B0112095D9D
:1012B300499C0112095D0F9D0112095D619E011296
:1012C300095D669F0112095D79A20112095D8BA474
:1012D3000112095DEBA40112095DC3A50112095DA9
:1012E300EEA50112095D8CA60112095D6AA7011220
:1012F300095D4BA80112095D1BA90112095D48A9EB
:101303000112095D6AA90112095DACAB0112095D05
:1013130066AC0112095DBDAC0112095D20AD01127D
:10132300095DD6AD0112095D0BAE0112095D5FAE19
:101333000112095D8FAE0112095DCDAE0112095D87
:101343001BAF0112095D20AF0112095D77AF0112D6
:10135300095D9FAF0112095D9AB00112095D22B1C7
:101363000112095DA3B30112095D60B40112095DA5
:10137300F5B50112095D6AB80112095D12B90112CE
:10138300095D8AB90112095DB3BB0112095D58BC3D
:101393000112095D9FBC0112095D6BBE0112095D5B
:1013A3007FBE0112095D8CBE0112095DB6BE01123A
:1013B300095DC2BE0112095DE0BE0112095DC2C032
:1013C3000112095D21C10112095D75C10112095D97
:1013D30080C20112095DDCC20112095D93C30112CF
:1013E300095DDBC30112095D75C40112095D59C5AD
:1013F3000112095D0FC60112095D40C70112095DA3
:1014030026C80112095DCEC80112095D62C9011225
:10141300095D79C90112095DB2C90112095DBCC92F
:101423000112095DC8C90112095DE6C90112095D0E
:101433002ACA0112095D98CA0112095DBFCA0112C5
:10144300095DD9CA0112095D2ECC0112095D78CC60
:101453000112095D81CD0112095DA6CD0112095D5D
:1014630010CE0112095D72CE0112095DE3CE0112A5
:10147300095DF5CF0112095DA0D00112095D88D184
:101483000112095DE6D10112095D70D20112095DF5
:1014930061D30112095D90D30112095DF7D30112E3
:1014A300095DD1D40112095DF7D40112095D60D53C
:1014B3000112095D85D50112095DABD50112095DE4
:1014C300E1D50112095DFDD70112095DEDD80112C5
:1014D300095DB3D90112095D4DDB0112095D96DB8C
:1014E3000112095DC2DB0112095D49DC0112095DCC
:1014F300B1DC0112095D03DD0112095D29DD011271
:10150300095D70DD0112095D9CDD0112095DD1DD0C
:101513000112095D21DE0112095D7FDE0112095D01
:1015230032DF0112095DF4E00112095D66E1011287
:10153300095D8FE10112095D03E20112095D78E2A1
:101543000112095DBAE20112095DF6E20112095DB9
:101553001BE30112095D61E30112095D7EE30112E0
:10156300095D1BE40112095D43890412095D8E893B
:101573000412095D91800212095DBF800212095DA8
:101583007D810212095D63820212095D6A83021280
:10159300095DF5840212095D6A850212095D1986E7
:1015A3000212095D16870212095D81870212095D25
:1015B300D4870212095D28880212095D328802125B
:1015C300095D78880212095DDB880212095D73895F
:1015D3000212095DE8890212095DD48A0212095DCB
:1015E3004F8B0212095D698B0212095D988B0212FF
:1015F300095DC58B0212095D5C8C0212095D6C8C5E
:101603000212095DBF8C0212095DCB8C0212095DC7
:10161300D78C0212095DE08C0212095D2B8D021238
:10162300095D868D0212095DD78D0212095DF28D67
:101633000212095D288E0212095D498E0212095DAC
:10164300538E0212095D688F0212095D868F0212A2
:10165300095DF88F0212095D0B900212095D199062
:101663000212095DBA900212095D8E910212095DA0
:10167300AF920212095D2B930212095D3593021298
:10168300095DA8930212095DBF930212095D0194DB
:101693000212095D3F940212095D6E940212095D04
:1016A300A5940212095DC3940212095DE794021224
:1016B300095D28950212095D17960212095D5D9670
:1016C3000212095D88960212095DFB960212095DFA
:1016D30022970212095D67970212095D759702123C
:1016E300095DCE970212095D0B980212095D5298AB
:1016F3000212095D83980212095DA6980212095D20
:10170300B1980212095DCF980212095D8B990212FA
:10171300095D95990212095DDA990212095D1E9A13
:101723000212095D329A0212095D1D9B0212095DC4
:10173300309B0212095D459B0212095DED9B02126B
:10174300095D399C0212095DEF9C0212095DFA9C46
:101753000212095D489E0212095D749E0212095D20
:10176300B59E0212095DCF9E0212095D409F0212CF
:10177300095DCC9F0212095D03A00212095D66A2F6
:101783000212095DEEA20212095D6EA30212095D47
:10179300B1A50212095DC1A50212095DC4A5021219
:1017A300095DD0A50212095DE4A50212095D03A635
:1017B3000212095D36A60212095DFBA60212095D3B
:1017C30062A70212095DC6A70212095D50A80212A0
:1017D300095D01A90212095D2FA90212095DC5A9BC
:1017E3000212095DF4A90212095D16AA0212095D2B
:1017F3003DAA0212095DA2AA0212095D55AC0212AA
:10180300095D58AC0212095DC2AC0212095DB5ADA7
:101813000212095D9CAE0212095D27AF0212095D37
:101823006AB00212095D2DB10212095D66B102129E
:10183300095D97B10212095DA0B10212095D84B27C
:101843000212095D14B30212095DB2B30212095DFB
:1018530072B40212095DEBB40212095D1AB50212E9
:10186300095D57B50212095D678B0312095D798B18
:101873000312095DF58B0312095D2F8C0312095DB9
:10188300868C0312095D088F0312095D749103129C
:10189300095D42940312095D7A940312095D9C94D5
:1018A3000312095D18950312095D56950312095D2C
:1018B3007B950312095D27DE0212095DEE95031283
:1018C300095DB3F20312095DE2F20312095DF0F25E
:1018D3000312095D07F30312095D20F30312095D87
:1018E3003CF30312095D5DF30312095D80F30312F8
:1018F300095DB6F30312095DEEF30312095D0AF401
:101903000312095D52F40312095D00800412095D9C
:1019130012800412095D41800412095D1C28001223
:10192300095D63BD0312095D71BD0312095DB9BD94
:101933000312095D67BE0312095D8ABE0312095DC6
:101943007BBF0312095DA6C20312095DB4C2031271
:10195300095D09C30312095D3BC30312095D9EC3FD
:101963000312095D12C40312095D6AC40312095DFF
:10197300D7C40312095D0EC50312095D89C503129D
:10198300095DEAC50312095D2CC60312095D3EC653
:101993000312095D50C60312095D73C60312095D84
:1019A3001FC70312095D65C70312095DF3830412A0
:1019B300095DAF840412095D6BFA0312095DD9FA5C
:1019C3000312095D00FB0312095DF1FB0312095DBC
:1019D3003EE60212095D21E70212095D67E7021282
:1019E300095D53E90212095D98E90212095D64EB8E
:1019F3000212095DACEB0212095DABEC0212095D48
:101A030062ED0212095DD6ED0212095D7DEE02124E
:101A1300095DD3EE0212095D31EF0212095D7EEF1B
:101A23000212095DFBF00212095DD2F20212095D96
:101A3300C3F40212095DD1F40212095D2DF50212FD
:101A4300095DB1F80212095D188A0412095D2E8A34
:101A53000412095D98890412095DDBEF0312095D25
:101A6300F2EF0312095D83F00312095DC3F0031261
:101A7300095DDEF00312095D05F10312095D39F119
:101A83000312095D6DF10312095DA2F20312095DF0
:101A9300A9F60312095DD4F60312095D25F70312B3
:101AA300095D41F70312095D83F70312095DAEF780
:101AB3000312095D54F80312095D70F80312095DFE
:101AC30088F80312095D00800312095D96800312F2
:101AD300095D63810312095D7D820312095D4C84F4
:101AE3000312095D39850312095D7F870312095DBE
:101AF300DB870312095DF5870312095D2F8B031240
:101B0300095D378B0312095D3F8B0312095D478B18
:101B13000312095D4F8B0312095D578B0312095D95
:101B23005F8B0312095D8B700012095DD870001280
:101B3300095DE6700012095DC5710012095D8372CB
:101B43000012095D9A720012095DE9720012095DC3
:101B530043730012095D5A730012095DB0730012DA
:101B6300095DC8730012095D0A740012095D4275AC
:101B73000012095DA1750012095DBC750012095DB3
:101B830009760012095D47760012095DA3760012FB
:101B9300095DB7760012095DC8760012095D4677C4
:101BA3000012095DD4780012095D11790012095DF4
:101BB3004E790012095D92790012095DAF79001226
:101BC300095DBF790012095DC2790012095D1E7AB1
:101BD3000012095DF87A0012095D247B0012095D89
:101BE3004B7B0012095D6B7B0012095DEC7B0012DD
:101BF300095D197C0012095D397C0012095D767C50
:101C03000012095D917C0012095DE2880412095DEE
:101C1300F3880412095D2E890412095D03D10312AE
:101C2300095D54D10312095D44D20312095D7AD2CE
:101C33000312095D5BD40312095DA1D40312095D8C
:101C4300F7D40312095D60D50312095D9CD6031214
:101C5300095D40D80312095D62D80312095DB6D845
:101C63000312095D3AD90312095D009E0312095D4F
:101C7300209E0312095D339E0312095DC29E031267
:101C8300095D379F0312095DC49F0312095D2EA0EE
:101C93000312095DD6A00312095D7EA10312095D3B
:101CA30051A20312095D0BA30312095D51A3031291
:101CB300095DF1A80312095DFFAA0312095D3EAB9A
:101CC3000312095D41AB0312095D02AD0312095D05
:101CD30019B10312095D23B20312095D19B403128A
:101CE300095D00B80312095D14B80312095DE3B975
:101CF3000312095DB9BA0312095DF9BB0312095D49
:101D030046BC0312095DADBC0312095D55E4011223
:101D1300095D2AE50112095DBFE50112095D61E66E
:101D23000112095D7CE70112095D16E80112095DE4
:101D330048EB0112095D9AEC0112095D2BED0112CA
:101D4300095D62EF0112095D22F00112095DB8F02D
:101D53000112095D34F20112095D4EF30112095DAE
:101D6300E1F40112095D76F50112095D87F60112AE
:101D7300095D4E870412095D5C870412095D6A8759
:101D83000412095D6F870412095D9C870412095DC3
:101D9300ABFD0112095D0EFE0112095D76FE011213
:101DA300095DD3FE0112095D35FF0112095D87ED5F
:101DB3000312095DE5ED0312095D88EF0312095D66
:101DC300E6870412095D2B880412095D30FC0312B7
:101DD300095D3EFC0312095DC09D0312095DAC86DB
:101DE3000412095DBC860412095DDF860412095DD5
:101DF30040870412095DB9810412095DE081041270
:101E0300095D65820412095DC2820412095DDD9DCC
:101E13000312095DDB820412095D01830412095D6B
:101E23006B830412095D76830412095DBE83041279
:101E3300095D32960312095D40960312095D83968C
:101E43000312095D9F960312095D22970312095D30
:101E53002B980312095D50980312095D72980312BF
:101E6300095D94980312095DBC980312095DF89803
:101E73000312095D46990312095DBD990312095DB9
:101E8300889A0312095D6ED90312095D85D903127D
:101E9300095DFFD90312095DBCDA0312095D88DD10
:101EA3000312095DF3FD0312095D30FE0312095DA0
:101EB3004DFE0312095DD5FE0312095D42FF0312B5
:101EC300095DE7F70112095D31F80112095DA3F815
:101ED3000112095D62F90112095DDDF90112095D63
:101EE30035FB0112095DA4FC0112095D07FD011216
:101EF300095D51FD0112095D5FFD0112095D71FD6F
:101F03000112095D87FD0112095D9DFD0112095D45
:101F130000F90212095D5CF90212095D31FA02123D
:101F2300095D68FA0212095D8FFA0212095DA8FAC7
:101F33000212095DC6FA0212095D60FB0212095D15
:101F430031FC0212095DDDFC0212095D9EFD0212E5
:101F5300095DEDFD0212095D30FE0212095DC2F456
:101F63000312095DF4F40312095D05F50312095D1B
:101F73004DF50312095D80F50312095DB3F50312F4
:101F8300095D27F60312095D4CF60312095D9C7C7B
:101F93000012095DD67C0012095D207D0012095DE7
:101FA300487D0012095D8D7D0012095DC27D00121E
:101FB300095DFA7D0012095D277E0012095D4D7EE1
:101FC3000012095DA87E0012095DD07E0012095D32
:101FD300577F0012095D6F7F0012095D847F001235
:101FE300095D6F880412095DBE880412095DE7DD8F
:101FF3000312095DD4DE0312095DE1DE0312095DFC
:10200300F9DE0312095D50DF0312095DA5DF031238
:10201300095D38E00312095DBAE00312095D0FE1BF
:102023000312095D4AE10312095DA3E10312095D8D
:10203300B7E10312095DCAE10312095D06860412C2
:10204300095D2F860412095D5C860412095D84868E
:102053000412095D449B0312095D639B0312095D2E
:10206300749B0312095D829B0312095DA69B0312F5
:10207300095DB99B0312095DCC9B0312095DE49BC7
:102083000312095D1A9C0312095D589C0312095D32
:10209300899C0312095DDB9C0312095D2A9D0312CF
:1020A300095D4A9D0312095D589D0312095D6D9DEB
:1020B3000312095DB39D0312095DB67F0012095D2A
:1020C30097C70312095DD0C70312095DF8C703124E
:1020D300095D0FC80312095D2EC80312095D9CC870
:1020E3000312095DD4C80312095DCBCC0312095D49
:1020F3001BCE0312095D55CE0312095DAFCE031249
:10210300095DBCCF0312095DE8CF0312095D01D05D
:102113000312095D15D00312095D5ED00312095D38
:10212300BAD00312095DD4D00312095D73FE021203
:10213300095D87FE0212095DADFE0212095DD0FE44
:102143000212095DFAFE0212095D26FF0212095D01
:1021530045FF0212095D7AFF0212095D9DFF02121B
:10216300095DC0FF0112095DE9E10312095DFDE1AB
:102173000312095D2BE30312095D5DE30312095D9D
:1021830084E30312095DACE30312095DC5E30312A3
:10219300095D00E40312095D6AE40312095DA6E424
:1021A3000312095DF2E40312095D22E50312095DDE
:1021B30045E50312095D8BF80312095DA3F80312C9
:1021C300095D8BF90312095D07850412095D6185B9
:1021D3000412095DA1850412095DE4850412095DF9
:1021E30050E90312095D71E90312095DC4E90312A1
:1021F300095DE3E90312095D0DEA0312095D29EAAA
:102203000312095D45EA0312095D40EB0312095D00
:102213008BEB0312095D3DEC0312095D4AEC0312DB
:10222300095D58EC0312095D66EC0312095D75EC58
:102233000312095D9DE50312095D42E90312095D7D
:10224300EB890412095DAFFF0312095DD4FF02128B
:10225300095D3E8A0412095DE1DD0212095D4CDD70
:102263000212095D9BDC0212095D8EDC0212095D1C
:1022730063D90212095DFBD60212095D9BD50212D6
:10228300095DF4D40212095D09E60212095DEBE56A
:102293000212095D1FD30212095D66D10212095DA4
:1022A300F0E40212095D55E40212095DEDD0021259
:1022B300095D91D00212095D34D00212095D0AD082
:1022C3000212095DFECD0212095DCACD0212095D3B
:1022D30083CD0212095D58CD0212095DAECC021204
:1022E300095D61CC0212095DCFCA0212095DCCCA35
:1022F3000212095DDEC90212095DAAC90212095D53
:10230300E5C80212095D18C70212095DCBC60212A5
:10231300095D18E30212095DD9E00212095D0BE0C1
:102323000212095D23DF0212095DE4DE0212095D78
:102333009CC60212095D99C60212095D8CC602127F
:10234300095DB3DE0212095D52C60212095D44C67D
:102353000212095DFAC40212095D76C40212095D14
:10236300AD800412095D95DE0212095D3CC40212C0
:10237300095DE0C30212095DB3C30212095DC0C067
:102383000212095D7EC00212095D72C00212095D6C
:10239300D2BF0212095D09BF0212095D59BC0212C4
:1023A300095D85B90212095D46B90212095DE5B7F7
:1023B3000212095D91B70212095DD5B60212095DD9
:1023C300A8B60212095DFFB50212095D98B50212A3
:1023D300095DD2B50212095DAB950300000080FBD5
:1023E300E47300013636010100010201000103011B
:1023F300000104010606050200000701003408017C
:10240300000F090401010D0100FF0E08000017026F
:102413000000190100FF1A0100011B0100051C0146
:1024230000081D0200001F0100012001000121021C
:1024330000002301000F24020000260100012701F0
:102443000308280200FF2A0100072B0102402C0188
:1024530000002D0100012E0100012F0100FF3001BA
:102463000B1C310800003A01000803007100300121
:10247300600011007000310220035004800010003E
:1024830061000000140063007300720062004300E7
:10249300000013000600000000000400120000000A
:1024A30000000000000004000400370037003C0275
:1024B300440000000000000000006500000035003B
:1024C3008100000005000000830000000103710388
:1024D30001030103010301030103220302030103B7
:1024E30010030003000300030003000300030003C1
:1024F300420300032403060300030003040312033F
:102503002503230325032303040304030003000318
:1025130000034403000300032303000365032100B6
:1025230035038103000305030003000300030304D1
:10253300710402046004110470040204020401041F
:102543000204100461040004140463047304720499
:102553006204430400041304060400040004040496
:102563001204000400040004000451046400000485
:10257300000400044404000400040004000465048F
:10258300000435048104640005040004830400048A
:102593000101710101010101110101013101010178
:1025A30001018001100161013B001400630173010B
:1025B3007201620143010001130106013D0135006F
:1025C30004011201000100010001000104010401E2
:1025D300330133013C0144013201360000010001A3
:1025E30065010001350081010001050182018301BC
:1025F3000001030271023001600211027002010244
:10260300020202028002100261023A0041006302E8
:1026130073027202620243020002130238000002D4
:10262300000204021202000200020002000204027D
:102633000402370037003C02440200023900000262
:1026430000026502000235028102000205028202D5
:102653008302000236000100060000000F000000A4
:102663000000000000000000000003FFFF00000462
:1026730003FFFF0000FFFF0FF4010005C404032064
:10268300000100000B000000000000000003010037
:10269300002A1D1300C41C01002A1D02008E1C0306
:1026A30000941C04009A1C0500A01C0600AC1CFF2F
:1026B300FF000001A41206D41208CE120BE0121080
:1026C300381202AA1205C21207B0120C92120D9E02
:1026D30012FF0000030003000400080010001F00A5
:1026E3003E007B00F600EC01D703AF075D0FB91E78
:1026F300713D0000B216E216B816BE16DC16D016EF
:10270300CA16E816EE16F4160017C416AC16A6166B
:10271300D5C5C5B5A5A59585857575656555554516
:10272300453535252515059C36063A703DD9404378
:1027330044AD47174B814EEA5100160F00000B15AD
:102743000B020002220F3200000656777777777765
:1027530077777777777777777777000102030405C1
:10276300060708090A0B0C0D0E0F9617A817AE17CC
:102773007C16B41776168216B615B015EC15F2153D
:10278300E6159E15081826182C180E181A18141872
:102793000C0E020B040B0A0708000F00383C3E36F0
:1027A3003B3B352B432C0001191618161615230332
:1027B3000000034948424D18172505023030171809
:1027C3001921301B1D1F30303016181920231A1CF5
:1027D3001E30D616FA16201806170C17FC17BA1750
:1027E300C017CC17C617C215C815BC15F8150005B8
:1027F300150D09100804000000000000CE15E015B7
:1028030000BE040A150004000E000309280F010886
:1028130009000C040810050C0874F61206B074FFC6
:10282300120CE9E4851082851183F0858208858383
:10283300097808120C5C7508017509007808120CF8
:102843005C12414E120C897401023F3774F6120672
:10285300B08C088D097808120C5C75080B7509009B
:102863007808120C5C12414E023F3774F61206B020
:102873008C088D097808120C5C75080B75090078B3
:1028830008120C5C124159124062023F37C082C0E9
:10289300838A828B83E0D2E7F0121BE002482AC0CE
:1028A30082C083790012292AC082C0839003301228
:1028B30058F4D083D082C3E09CA3E09D500C124E09
:1028C30059FAA3E012299B60010902482A74F712FE
:1028D30006B012292A122AD6AEF075F00BEDA42EFB
:1028E300FD900332E02CFEA3E03DFF740169600517
:1028F30074026970208A828B83A3125A56126A3437
:102903007402697018122D56122E667010E48E82AE
:102913008F83F08008EA2403FCEB122E4EEEFAEFCD
:10292300FB120F2C023B0F1260FBEB125CF62274BE
:10293300F41206B08A088B09125A5C79008A828BDA
:1029430083E0604E7E007F008043122998703B1223
:102953002B22F50AA3E039F50B850882850983E06C
:102963008C82850B8312450DF8A3E0F98C82850BCD
:1029730083122E6EFCE509122DE4122E56125CFB17
:10298300AA0AAB0B120F2C125F881232C4122D5EEF
:1029930040B8024508EEFAEFFBEA75F00BA4FAAC77
:1029A300F075F00BEBA42CFB900332126DF4F5835E
:1029B300E0540F2274F51206B08A088B09740B12C7
:1029C3000F16125F8D750A01EC7001ED6026EC1293
:1029D3002F3CED124B2F7901120F38EE7001EF608F
:1029E3006E8E828F83A3125A647902EEFAEFFB1282
:1029F3000F38805BEE7001EF6031122F3BEF124B0B
:102A03002FEE2403FAEF122E60700CAA08AB091202
:102A13000F3EE9F50A80CAE5082403FAE509122EF8
:102A230060702C7903AA08AB0980C48A828B83A3C4
:102A3300E064FE7004A3E064FF7005122E5D700C69
:102A4300AA08AB09120F3EE9F50A8003750A0002D2
:102A53003B9274F71206B0900330124DECEA70010A
:102A6300EB6031EA75F00BA4FAACF075F00BEBA454
:102A73002CFBEAFEEBFF1219C4900332124DEC90CB
:102A83000332E07002A3E06012EEFCEFFD79001266
:102A930019348007900332E4F0A3F0023B0F74F67D
:102AA3001206B07508007509007808120C5C9003D3
:102AB30030122AD6AAF075F00BEDA42AFD7A237BF7
:102AC30000121A367402120C89E9FE6003120F56C3
:102AD300023F171258F8EC75F00BA4FC2274F7129E
:102AE30006B07E007F00800AEEFAEFFB12191C127B
:102AF30032C4122B7640F1023B0F74F71206B07EFC
:102B0300007F008012122B22FCA3E039FDEEFAEFC6
:102B1300FB120F261232C4122B7640E9023B0FEE52
:102B2300F8EFF9122B63E0282274F71206B07E0047
:102B33007F008020122B5F125AC988828983E0A20A
:102B4300E7500EC2E7F0AC82AD83EEFAEFFB120F53
:102B5300201232C4122B7640DB023B0FEEF8EFF962
:102B6300E875F00BA4F8AAF075F00BE9A42AF99024
:102B7300033222900330124B50C3EE98EF9922C0D8
:102B830082C083EC7001ED60051221DA80097C08B4
:102B93007D00790012193402482A74F61206B079BE
:102BA30000EA7001EB60177C008C08EA2508125FCD
:102BB30081600479017C080CECC3940840EB023F6C
:102BC3003A74F71206B074F3120CE9ECFEEDFFE46D
:102BD300851082851183F07401120F16124185123C
:102BE3000F8C7403120F16AC82AD83EEFAEFFB1257
:102BF3000F68EEFAEFFB120F6E023B0A74F7120630
:102C0300B074F3120CE9ECFEEDFFE485108285113C
:102C130083F0EAFCEBFD7403120F161241BC74013E
:102C2300120F16122F40124B3974FE68700374FF93
:102C3300696004790180027900023B0A74F7120685
:102C4300B0EAFEEBFF122C8D7010122C9864FFFC7F
:102C53008A828B83E05CF0120F2C02447274F712A9
:102C630006B0EAFEEBFF7508008E828F83E06017E3
:102C7300122C8D7012122C988A828B83FCE05C706C
:102C830006E04CF0120F2C024472120F32E9F508E1
:102C93007401650822EE1260FCEF124B4C122B6399
:102CA300E028FAA3E039FB8E828F83E02274F412CA
:102CB30006B08A088B097C007D00122D56122E5611
:102CC300E508122F3CE509125A60790085088285D0
:102CD3000983A3E064FE7004A3E064FF60727E00D6
:102CE3007F008067122998605FEEFAEFFBEA75F0C8
:102CF3000BA4FAACF075F00BEBA42CFB900332E0C1
:102D03002AF50AA3E03BF50B850882850983A31204
:102D13005A4B850A82850B83A3E06A7003A3E06B99
:102D23007026E50A2403FAE50B122E607014E50AF7
:102D33002403FCE50B3400FDE5082403FAE509123E
:102D43002E56125CFB125F881232C4122D5E409421
:102D5300024508EA24030A0A0AEB22900330125AB6
:102D630052C3EE9AEF9B2274F21206B08A0A8B0BBF
:102D73008A828B83A3125A64125A5C750800122E3E
:102D83005D70597E007F00804E122B5F126DE5E06F
:102D9300540F6040122B22F50CA3E039F50DE50C1E
:102DA3002403FCE50D122DE43400FB1221D4E96465
:102DB300017021850C82850D83A31258ED850A824B
:102DC300850B83A3E8F0A3E9125101125D06750890
:102DD30001125F8A1232C4122B7640ADA908023D5C
:102DE300A73400FDE50A2403FAE50B2274F5120665
:102DF300B0EAFEEBFF8E828F83A3125A647C007DC0
:102E030000EE24030A0A0A122E55EEFAEFFB120F04
:102E130032E9F50A7401650A702E1244771258EDEF
:102E2300122B26F508A3E039F509850882F583A35B
:102E3300122F40122E6EFAE509122E60700AE50871
:102E43002403FCE509122E4E023B923400FDEE24CE
:102E530003FAEF3400FB120F6822122D56122E666E
:102E63006401223400FB120F6EE922A3E8F0A3E908
:102E7300F0E50824032274F21206B074E6120CE99A
:102E8300EAFEEBFF122F3BEF125A60750801750A39
:102E930000750B00750C00750D00E485108285111B
:102EA30083F0EE2403FCEF3400FD7403120F1612BB
:102EB30043636401702D740B120F16124D9B122F76
:102EC3003CEF124B367401120F16122F40A3E06829
:102ED3007003A3E069605385108285118385820A9C
:102EE30085830B740D120F16122F4E1258ED740EAC
:102EF300120F16124B39740D120F16AA82AB8312DE
:102F03000F8CE96401700B740D120F1685820C850A
:102F1300830D780C120C5CAC0AAD0BEEFAEFFB12CE
:102F23000F447402120C89E9F508EEFAEFFB120F55
:102F330086A908741A023DA4EE1260FC22122F44E3
:102F430022E0F8A3E0F98E828F8322E4122F53222A
:102F5300F08E828F83A322C082C083122F7CEC75F4
:102F6300F012A4FCAAF075F012EDA42AFD79FF7A01
:102F7300D87B1512193402482A902807E493FC746D
:102F83000193FD2274F71206B0E9FEEAFF7C007D8F
:102F93000078007900802DE8FAE9FBEA75F012A4C5
:102FA300FA85F00875F012EBA425081233F5C39ED9
:102FB300400FE0FAEFC39A4008EC24010CED340013
:102FC300FD1238F790280712387E40CBECFAEDFB60
:102FD300023B0FC082C0837800790080031238F768
:102FE30090280712387E500C1233DF64FF70EE1204
:102FF300348380047A007B0002482A74F01206B0FE
:1030030074F3120CE98A0E8B0F8C088D09890AEC74
:103013007001ED6015AA08AB09120FDA8A0C8B0D4B
:10302300AE0CAF0DEE7001EF704B120FB08A0C8B2C
:103033000DA80CA90DE8FEE9FFE87001E9603674FC
:1030430001851082851183F0120F16E50EF0A3E5BA
:103053000FF0AC08AD097403120F16123198740BFC
:10306300120F1612474E124B39123114AA0EAB0F20
:103073001214F68006EE7001EF60727A00E50A60C2
:1030830007C3940550027A048E828F83E50EF0A362
:10309300E50F123A97E50AF0EA8E828F83A3A3A382
:1030A300A3A3F074028E828F83A3A3A3A3A3A3A3DA
:1030B300A3F074018E828F83A3A3A3A3A3A3A3A3CB
:1030C300A3126641A3F0EE241012310DE4F0A31213
:1030D3004599A3A3F0124477E4F0908790780812FF
:1030E3000EB4EE240C12310D7808120E9612332F03
:1030F300400EE4901A63F07A637B1A79411221F24D
:10310300EEFAEFFB0269BAEE240DF582EF125CF6DC
:1031130022E48E828F83A3A3A3A3A3A3F0900380AF
:103123001258F82274F21206B074F3120CE9EAFE94
:10313300EBFF8C088D09750A00AA08AB09120FDA98
:103143008A0C8B0DA80CA90DE87001E960408882F8
:103153008983E06E7003A3E06F603388828983A361
:10316300A3A3A3E0C39405502588828983125D0637
:103173007401851082851183F0120F16125D06AC5F
:1031830008AD097403120F16123198750A01A90AC2
:10319300740D023DA41241C7120F9E2274F612064B
:1031A300B01255547001E9601488828983A3A3A3E4
:1031B300A3E06009C39405500479018002790002F9
:1031C3003F3A74F61206B01255547001E960148840
:1031D300828983A3A3A3A3E06009C3940350047962
:1031E3000180027900023F3A74F61206B0120FD43E
:1031F3008A828B83E5827002E583600BA3A3A3A37A
:10320300E07004790180027900023F3AC082C083F2
:10321300EAFCEBFD7A007B00120FE002482AC08231
:10322300C0837C007D0080F074F41206B074F31246
:103233000CE98A0A8B0B8C088D097E007F008021A4
:10324300123796120F161232C960137403120F1637
:10325300AC82AD83AA0AAB0B1221D4E970381232C7
:10326300C41232BB504912363460F3E50A7002E5EA
:103273000B70CD74FF6508700474FF650960DFEEA1
:10328300F8EFF9E875F012A4F812377F65087004B7
:10329300A3E0650970C8EE75F012A4FEAAF075F0FC
:1032A30012EFA42AFFEE24D8FAEF3415FB80047A38
:1032B300007B00740D024505902807123E4D022B3A
:1032C3007D123620FF22E8F0A3E91241E1120F98A4
:1032D300E92274F41206B074F3120CE975080012B3
:1032E3000FDA8A0A8B0BAE0AAF0BEE7001EF602A7E
:1032F3007401851082851183124780F8A3E0F97465
:103303000B120F161241D9120F807C127D0079FF28
:10331300EEFAEFFB12193475080112332F500974BA
:1033230001901A63F01213D6A90880877A047900F2
:10333300120FAA902807123E4DEA98EB992274F7D0
:103343001206B0E9FE74FE6A700374FF6B780079AD
:1033530000700580591238F79028071238EA504E4A
:10336300E8FCE9FDEC75F012A4FCAFF075F012ED8A
:10337300A42F1269CCED12364C60DAE8FCE9FDECBF
:1033830075F012A4FC75F012EDA42FFDEC24D8F512
:1033930082ED3415F583E06A7003A3E06B70B680A9
:1033A3000A1233DF6005C39405401A1238F79028D8
:1033B3000712387E501FEE70E81233DF6401600598
:1033C300E0640370E6E875F012A4F8AAF0123786F9
:1033D300125A4980047AFE7BFF023B0FE8FAE9FBAD
:1033E300EA75F012A4FAACF075F012EBA42C1233C8
:1033F300F522FBEA24DCF582EB3415F583E0221297
:103403000FEC02482AC082C083790180F274F01263
:1034130006B08A0E8B0F7A047901120FAA8A08AEBE
:1034230008EE7001EB6044EAC333FAEB33FB121985
:10343300C48A0A8B0B8A088B09EA7001EB60287A2D
:10344300FE7BFF120FF274FE6A700374FF6B602140
:10345300850A82850B83124DECE50A2402F50AE501
:103463000B3400F50B80DC7E0080067508007509BF
:1034730000EE850E82850F83F0AA08AB090269BFAF
:10348300E875F012A4F8AAF075F012E9A42AF9E895
:1034930024D8FAE93415FB2274F61206B075080035
:1034A3007509007808120C5C902807123F4B7403CF
:1034B3007808120DA01236287B00121A36740212F5
:1034C3000C89E9FE6003121004023F1774F612061A
:1034D300B074FE120CE9123F78023F1B74F6120619
:1034E300B074DF120CE97E0085108285118385821A
:1034F300088583097808120C5C7508028E09780820
:10350300120C5C7C007D00124060120C89E96003A0
:1035130002359D8079740F120F1685820885830901
:103523007808120C5C7508087509007808120C5CA1
:103533008E0874037808120DA074022508FCE43584
:1035430009FD124060120C89E970427402120F16D1
:103553007401F07411120F161258ED740D120F1638
:10356300124B397402120F16AA82AB83120F98E919
:10357300601B7413120F16E0F97405120F16AC8258
:10358300AD83740F120F16125A4B120FB60E8E081C
:10359300124052E4995003023518EEF97421023FA8
:1035A3003774F61206B074FE120CE9851082851189
:1035B30083E4F0A3F0FE804E1236346046EEF8EF5B
:1035C300F9E875F012A4F875F012E9A42AF9E824D1
:1035D300D8F508E93415F5097808120C5C75080864
:1035E3007509007808120C5C7404120F16123DB4AE
:1035F30074037808120DA0123628124151120C8957
:1036030012413E123620FF1232BB40AC8510828538
:1036130011838582088583097808023F1BEE240104
:103623000EEF34002274022508FCE43509FD7A22EA
:1036330022EEF8EFF9E875F012A4F8AAF075F0128B
:10364300E9A42AF9E81269CEE91233FC64FF227473
:10365300F71206B07A007B00800919EA24010AEB0D
:103663003400FB122F7CC3EA9CEB9D503AEAFCEB3F
:10367300FDEC75F012A4FCAEF075F012EDA42E1261
:1036830069CCED1233FCC3940550D0E970CCEA75D4
:10369300F012A4FAACF075F012EBA42CFBEA24D8D8
:1036A300FAEB3415FB80047A007B00023B0F74F7BE
:1036B3001206B074F3120CE97E007F0002374EE568
:1036C30008125CD6125A49EEF8EFF9E875F012A425
:1036D300F8ACF075F012E9A42CF9E812677C6A7073
:1036E30003A3E06B6044E50875F017A4F8AAF0EAB9
:1036F300F9E82452F582E93417F5831242DE120FFA
:1037030016E0687003A3E0696020E50875F017A46C
:10371300F8EAF9E82454FCE93417FD7403120F1690
:10372300AA82AB831221D4E96011E50875F017A4CE
:103733002452FAE5F03417FB1215020508902812FB
:10374300125EBF50030236C21232C41232BB50297A
:10375300EEF8EFF9E875F012A4F8AAF012377F64D7
:10376300FF7004A3E064FF60DF123796120F161296
:1037730032C960D475080080C4023B0A123786F54B
:1037830083E02275F012E9A42AF9E824D8F582E946
:103793003415227401851082851183F0EEF8EFF958
:1037A300E875F012A4F875F012E9A42AF9E824DA0E
:1037B300F582E93415124B4E740B2274F61206B0DF
:1037C300123F3FFC740193FDEC8508F0A4CCAAF0F2
:1037D3008509F0A42AFA8508F0EDA42AFD79FF7A79
:1037E3001F7B1A1219349003357434F0A37410F04C
:1037F300900337742EF0A37410F09003397458F0CB
:10380300A37410F090033B746AF0A37410F0900358
:103813003D7470F0A37410F090033F7476F0A374BA
:1038230010F0900341747CF0A37410F0E49003341F
:10383300F0023F3AC082C0837800790080031238D7
:10384300F712387B501CE8FAE9FBEA75F00EA4FA8C
:10385300ACF075F00EEBA42C12386C70E1123CE85E
:1038630080047A007B0002482AFBEA241FF582EBDE
:10387300341AF583E064FF22902809E493FA740173
:1038830093FBC3E89AE99B2274F71206B07A007B94
:1038930000780079008045E8FCE9FDEC75F00EA4A2
:1038A300FCAEF075F00EEDA42EFDEC241FF582EDB9
:1038B3001238736024E8FCE9FDEC75F00EA4FC7586
:1038C300F00EEDA42EFDEC2424F582ED341AF583DD
:1038D300E0FCEA2CFAEB3400FB1238F790280912CB
:1038E30038EA40B3023B0FE493FC740193FDC3E851
:1038F3009CE99D22E8240108E93400F92274F112BD
:1039030006B074FC120CE97402120F16124DEC8906
:103913000E8C088D0B7E007F001210947402120F20
:1039230016125A4B12109A124DE67402120F161207
:1039330055957007750A018E0980058E0A85080959
:10394300851082851183E064FE7004A3E064FF7038
:1039530003023A6D8E088002050885080C90280939
:10396300126A044003023A00A808E875F00EA4A9FD
:10397300F0123DDF650E70E0E875F00EA4123DAC69
:10398300650A70D41258E7E50875F00EA42421F5F2
:1039930082E5F0341AF583E0687003A3E06970B838
:1039A300A808E875F00EA4A9F02423F582E9341AD7
:1039B300F583E0650970A1E875F00EA4241FFEE904
:1039C300341AFF750800E508C3950B4003023A6DEE
:1039D300E508C333F8E433F97413120F16123A8669
:1039E300121040E97013E508C333F8E433F9741394
:1039F300120F16123A8612104C050880C9121028AD
:103A03008A0C8B0DAE0CAF0DEE7001EF605C8E82F5
:103A13008F83E50EF0A3E50A1247698E828F83A395
:103A2300A3E8F0A3E9123A97E509F0902816E49386
:103A3300C3950B5004E493F50B8E828F83A3A3A34A
:103A4300A3A3E50BF07413120F16123DB4750A000D
:103A53007808120C58E50BC333FCE433FDEE24065F
:103A6300FAEF3400123A7F120C89EEFAEFFB74047A
:103A730080027412120C897F070209CAFB121928EB
:103A8300740322126DE9123A8D22E0FCA3E0FDEEED
:103A9300FAEFFB22122F53A3A3A322C082C0839069
:103AA300280B122F7F79FF121934790102482A74E7
:103AB300F71206B0EA7001EB60498A828B83A3A3F5
:103AC300A3A3A3A3E5827002E58360377E00800190
:103AD3000E8A828B83A3A3A3A3A3E0FFEEC39F500D
:103AE30022EEC333F8E433F9EA28F582EB39F583A0
:103AF300A3A3A3A3A3A3E06C7003A3E06D70D17988
:103B030001800279008005740D120C897F0102097E
:103B1300CA74F51206B0EA7001EB605F8A828B8388
:103B2300A3A3A3A3A3E06063EA2406F8EB3400F99C
:103B33008A828B83A3A3A3A3A3E0F509750800805E
:103B43000DEA2405F582EB125A3E603F0508E508AD
:103B5300C395095026E508123BDAE06C7003A3E035
:103B63006D60DE123BE0125F8D88828983125D06F1
:103B7300E824020808E93400F980D18A828B83A300
:103B8300A3A3A3A3E060047901800279008002A9C2
:103B93000A7F030209CA74F71206B0EA7001EB60E8
:103BA300318A828B83A3A3A3A3A3E0C0E09028164A
:103BB300E493FED0E0C39E5019EA2405F8EB126F9C
:103BC3004F123BDA126A3488828983E004F0790168
:103BD30080027900023B0FC333FEE433FF126DFD15
:103BE300026A1D74F41206B08908EAFEEBFF8C0921
:103BF3008E828F83A3A3A3A3A3A3A3A3E0640170D3
:103C0300098E828F831258F48003123DEA74FE6C8E
:103C1300700374FF6D70077A007B00023CA8780084
:103C230079008014123CAB6401700A123CC9700322
:103C3300A3E06D606D1238F712387B50DAE8FAE9C9
:103C4300FBEA75F00EA4FA85F00A75F00EEBA425D5
:103C53000AFBEA241FF582EB341AF583E06508704A
:103C6300D48E828F83A3A3A3A3A3A3A3A3E06401FE
:103C730060B2123CAB70BE123CC97003A3E06D701E
:103C8300B4E8FAE9FBEA75F00EA4FA75F00EEBA4BA
:103C9300250AFBEA2423F582EB341AF583E0650950
:103CA3007093123CE8024508E8FAE9FBEA75F00E66
:103CB300A4FA75F00EEBA4250AFBEA2420F582EBA7
:103CC300341AF583E022E8FAE9FBEA75F00EA4FA68
:103CD30075F00EEBA4250AFBEA2421F582EB341AD6
:103CE300F583E06C22123CEC22E875F00EA4F8AAEE
:103CF300F075F00EE9A42AF9E8241FFAE9341AFB57
:103D03002274F21206B08A0A8B0B8A828B83A3A3D6
:103D1300A3A3A3A3A3A3E0640170098A828B8312E4
:103D23003DB480071210828A088B0974FE650870FF
:103D33000474FF650960687E007F00805A850A82EB
:103D4300850B83A3A3A3A3A3A3A3A3E0640170414F
:103D5300EEF8EFF9E875F00EA4F8AAF075F00EE9A5
:103D6300A42AF9E8123DAC64017029EEF8EFF9E8F2
:103D730075F00EA4F875F00EE9A42AF9E82421F5EC
:103D830082E9341AF583E065087004A3E0650970DD
:103D930003123DBC1232C49028091232BE409E80E9
:103DA30003120C897F060209CA2420F582E9023C2A
:103DB300C3E0F508A3E0F50922EEF8EFF9123CECB5
:103DC30012103A22EEF8EFF9E875F00EA4F8AAF013
:103DD30075F00EE9A42AF9E8123DDF22241FF582CB
:103DE300E9341AF583E0221210828A0A8B0BAC0A9B
:103DF300AD0B2274F31206B0890CEAFEEBFF750AD1
:103E030000750B007508007509008029E50875F039
:103E13000EA4F8AAF075F00EE509123DD7650C70F3
:103E230011EEFCEFFDAA82AB83121040E96003128E
:103E33003ED2123E56902809123E4DE50898E509F8
:103E43009940C9AA0AAB0B0246DCE493F8740193C8
:103E5300F9C322E5082401F508E5093400F5092230
:103E630074F11206B0890EEAFEEBFF8C09750800A7
:103E7300750A00750B0080050508123ED2902809CB
:103E830012678EE50B995040E50A75F00EA4F8AA67
:103E9300F075F00EE50BA42AF9E8241FF50CE934BC
:103EA3001AF50D850C82F583E0650E70CDEEFCEFFF
:103EB300FDAA0CAB0D121040E960BFE508C39509DC
:103EC30040B6AA0CAB0D80047A007B00023A7AE577
:103ED3000A2401F50AE50B3400F50B2274F61206E9
:103EE300B07508007509007808120C5C123F3F1288
:103EF300412375832875820BE49328FCA3E493394B
:103F0300FD7A417B00121A367402120C89E9FE60B5
:103F130003121070EEF9801F120C5C75080275090C
:103F2300007808120C5C7C007D007A221241511249
:103F33000C897402120C897F020209CA90280B12A1
:103F43003F4B902809E49322E493F508740193F519
:103F5300092274F61206B074FE120CE9123F7812AD
:103F63000C5C7508027509007808120C5C7C007DF6
:103F7300007A4180B7851082851183E4F0A3124152
:103F83006F85820885830978082274F41206B07459
:103F9300E7120CE97E007F008510828511838582FC
:103FA300088583097808120C5C7508028E09780865
:103FB300120C5C7C007D007A41124062120C89E98C
:103FC30060030240498E0880757402120F168582C1
:103FD3000A85830B780A120C5C90280B120B1712BC
:103FE3004111124062120C89E970507410120F16BD
:103FF300AC82AD837404120F16125A4B121088E967
:1040030060397408120F1685820A85830B780A12A9
:104013000C5C7409120F16E0FD7408120F16E0FC15
:104023007412120F16AA82AB837404120F16E0F9EE
:104033001210347402120C891232C4123E5612400A
:1040430052E509994083EEFAEFFB741902450585A1
:104053001082851183124B50C3E50898227A227B84
:1040630000121A4274042274F51206B074F0120C92
:10407300E9851082851183E4F0A3F0FE8057123D99
:10408300C764FF604D858208858309750A00780837
:10409300120C5890280B122F7F7405120F16AA8248
:1040A300AB83123A80120C897402120F16858208B0
:1040B3008583097808120C5C90280B120B17740483
:1040C300120F16123DB4124111124151120C8912F2
:1040D300413E123620FF9028091232BE40A08510BF
:1040E300828511838582088583097808120C5C75A3
:1040F30008027509007808120C5C7C007D007A4187
:10410300124151120C897410120C89023B949028AD
:104113000BE493124123740228FCE439FD7A412213
:10412300F8740193F9E88508F0A4C8AAF08509F0AA
:10413300A42AFA8508F0E9A42AF9228510828511B8
:1041430083E02401F0A3E03400F0221241597B0004
:10415300121A3C740422EA75F00BA4FAACF075F061
:104163000BEBA42CFBEAFCEBFD7A23221241732216
:10417300F085108285118322A3A3E508F0A3E50946
:10418300F022EAF0A3EB1241E122C082C08374F370
:10419300120CE912436870128A828B831242DE1278
:1041A3000F161241D9120F8C800CEAFCEBFD74033D
:1041B300120F161241BC02481F1241C0221241C7FE
:1041C300120F9222AA82AB83120F68851082851187
:1041D30083AA82AB8322E8F0A3E91241E1221241D0
:1041E300E52212417380EA74F71206B074F3120CDD
:1041F300E9ECFEEDFF7404851082851183F0740BE6
:10420300120F16EAF0A3EB1232CDF508601D74030A
:104213008E828F83A3A3A3A3A3A3A3A3F0120F163A
:10422300AC82AD83EEFAEFFB1221DAA908023B0A56
:10423300C082C08374F3120CE97404851082851163
:1042430083F0740B120F16124185120F987401023A
:104253004821125A52740D2274F61206B074F312E6
:104263000CE9900334E0706E740485108285118329
:10427300F09003731242DE120F16124B3912139A87
:10428300EAFCEBFD7403120F161231981213A68A7F
:10429300088B09A808A9097401120F16E0687003B6
:1042A300A3E069602B74FE68700374FF6960217476
:1042B30001120F16124B397403120F16AA82AB8325
:1042C3001213AC851082851183AA82AB83120F9ED1
:1042D3007401900334F0740D023F37124B50740194
:1042E30022C082C08374F3120CE91243688A828B62
:1042F30083701E1242DE120F16E8F0A3E9125B343C
:10430300705B851082851183AA82AB83120F9E8016
:104313004CA3A3A3A3A3A3A3A3E064037010EAFC89
:10432300EBFD7403120F16124363703180D48A823B
:104333008B83A3A3A3A3A3A3A3A3E0640170128A03
:10434300828B831258ED740B120F16E8F0A3E980E9
:104353000B740B120F1674FEF0A374FFF002481FC8
:104363001241C0E922740485108285118312661BF1
:10437300A3A3A3E064022274F51206B0EAFCEBFDEA
:104383007A007B008A088A09780079008003123852
:10439300F7902809E493FE740193FFC3E89EE99F15
:1043A3005038E8FEE9FFEE75F00EA4FE85F00A75BD
:1043B300F00EEFA4250AFFEE241FF582EF123873E7
:1043C30060CCAE08AF0974012EF508E43FF509ECA3
:1043D3006E7002ED6F70B7123CE8023B94C082C06E
:1043E3008390034874BCF0A37412F090034A74B62C
:1043F300F0A37412F090034E7400F0A37411F00252
:10440300482A74F71206B0EAFEEBFF900382E064D9
:10441300086019E0640460148E828F83E064017085
:1044230044124477125568E0640670398E828F8394
:10443300A3A3E064FE7004A3E064FF60288E828F70
:1044430083A3A3126A0D7003A3E069700BEE241516
:10445300F582EF125F84600812135EE9F5088008A5
:1044630012136480F67508C2EEFAEFFB1219CAA99B
:1044730008023B0FEE240B125CF32274F41206B015
:104483008A088B098A828B83E0F8A3E028FAE43454
:1044930000FB1219C48A0A8B0BAE0AAF0BEE700134
:1044A300EF6059850882850983E0FC7D007900125D
:1044B30019348E828F83A3A3125A641213A08E829F
:1044C3008F83A3A3A3A3125DB3F8EE28F8EF340000
:1044D300F9124477E8F0A3E912450DC0E012310A5E
:1044E300D0E0F01213B2EE240E12310DE91247544C
:1044F300E0C0E0EE241112310DD0E0F0EEFAEFFB54
:104503008003120C897F040209CA124759E02274FE
:10451300F41206B074EB120CE9EAFEEBFF900344CD
:10452300E07002A3E070687A077B001219C490035D
:1045330044124DEC900344E07002A3E0604D9003FD
:10454300441258F48F838E827407120BBB8E828FB2
:10455300837808120EB48510828511837808120EB1
:10456300968E828F83A3A3A3A3E0C0E07405120FEA
:1045730016D0E0124599E0C0E07404120F16D0E0A3
:10458300F07407120F161246E18006791080027943
:1045930001741502450512459D22F08E828F830218
:1045A3006A1DC082C083900344E07002A3E0600DE3
:1045B300900344125EC7900344E4F0A3F01212DAAE
:1045C3001214A202482A74F31206B074EB120CE917
:1045D300ECFEEDFF7422120F167808120EB4742647
:1045E300120F16E0FC7427120F16E0FD7428120F49
:1045F30016E0F50C740F6C7005740F6D6012901A51
:10460300CAE06402700579C10246D7ECC39D40F647
:104613009003837808120E96E9900389F0EC9003D7
:1046230087F0ED900388F0E50C90038AF074FF6A3D
:10463300700374FF6B701F901AD7E064FF7004A3BC
:10464300E064FF7005121946800C901AD712476276
:10465300E8F0A3E98007900380EAF0A3EBF0EE70A3
:1046630001EF6017EEFAEFFB121562E96401700BBC
:10467300EEFCEFFD7A947B031221DA900373E4F0EE
:10468300A3F0900376F0A3F0900393F0901ACAE09E
:104693006402700A740F900387F0900388F0740526
:1046A300900382F07404120F16E4F09003837808E9
:1046B300120EB48510828511837808120E9690032A
:1046C30089E0C0E07405120F16D0E0F07407120FF2
:1046D300161246E17415120C897F050209CAE41209
:1046E30046E6221241E512220422C082C0839003CF
:1046F30043E07003121CBE1210D002482AC082C0CD
:1047030083900343E07007E4901A62F080317401F0
:10471300901A62F0900343E064FF60237C41E0C39E
:1047230094415002E0FCECFAE0C39AF0EC75F0E837
:10473300A4CCAAF075F003A42AFD7A80126A297A20
:10474300627B1A79411221F202482A122F44A3A351
:1047530022124759A322F0850882850983A32212D6
:104763004B5090038022126A3FF8A3E0F922C082E3
:10477300C083EB90038AF01212C802482A122F5307
:10478300A3E02274F71206B074F8120CE9EAFEEB08
:10479300FF7900900382E0640870408510828511E0
:1047A3008374FD125A6612139A7402120F16124D75
:1047B300EC7405120F16122F4EE0C0E07404120FB2
:1047C30016D0E01247E3C0E07406120F16D0E0F0F3
:1047D3007407120F16124B3F1213F47408023B0CAA
:1047E300F0022CAAC082C0839003547484F0A37493
:1047F30011F09003EE7448F0A37414F0900358740E
:10480300B4F0A37411F090035A7484F0A37411F0FC
:1048130090035C74BAF0A37411F0800B740B120F45
:1048230016124255120C89D083D08202095074F4B7
:104833001206B074F9120CE98A088B098C0A8D0BE5
:104843008510828511837808120E967404120F1650
:10485300E9F07405120F16E4F07406120F16124BEA
:104863003F1210B8740702450574F41206B08A08A3
:104873008B098A828B83125F8DEE7001EF700302C6
:10488300498A900310E07002A3E060158A828B834B
:10489300A3A3E0F9EEFAEFFB90031012556812237D
:1048A300E38E828F83A3A3A3A3A3A3A3A3A3E06401
:1048B30002707F8E828F83A3A3A3A3A3A3E05402DA
:1048C3007003024959850882850983A3A3E064E93B
:1048D30070030249598E828F83A3A3A3A3A3A3A327
:1048E300A3A3A3E07014901ACCE0048E828F83A359
:1048F300A3A3A3A3A3A3A3A3A3F08E828F83A3A3A2
:10490300A3A3A3A3A3A3A3A3E014F074048E828F91
:1049130083A3A3A3A3A3A3A3A3A3F0901ACD124796
:104923004EA3A3E8F0A3E9126C207001EB7003120D
:1049330066238E828F83A3A3A3A3A3A3A3A3A3E02E
:10494300640260128E828F83A3A3A3A3A3A3A3A352
:10495300A3E0640670318E828F83A3A3A3A3A3A3D2
:10496300E0A2E05022850882850983A3A3E0F9EE43
:10497300FAEFFB1222D08E828F83A3A3A3A3A3A358
:10498300E054FEF0A3E0F002450874F01206B074A0
:10499300DD120CE98A0C8B0D8C0E8D0F7433120F04
:1049A300167808120EB47F00740E120F16AC82AD87
:1049B30083122318740E120F16E0A2E5500D0F1286
:1049C3005A441222DCE96003024AE2740E120F1603
:1049D300E0A2E6500E740F120F16E0540370047E2B
:1049E3000180027E00740E120F16E05403FA740263
:1049F3006A7009125A441222A0024AE274016A70D0
:104A030043EE6003124B15740E120F16A882A9838E
:104A13007403120F16E8F0A3E9124B448510828544
:104A23001183124B39850C82850D83A3A3A3A3A302
:104A3300A3E0C0E07402120F16D0E0124B40122321
:104A4300BA024AE2EA6003024AE2740D120F1674D4
:104A530002124B447405120F16124B39EE600874A0
:104A63000E120F16124B15740E120F16E0540C642F
:104A7300047071E50C240FF582E50D125F84C0E02C
:104A83007420120F16D0E0F0900312E07002A3E03E
:104A9300604D1213A08A0C8B0DA80CA90D7405127E
:104AA3000F16E0687003A3E06970347808120C54A1
:104AB300EFF5087808120C60780E120C5CEEF974AE
:104AC30015120F16AC82AD83740C120F16AA82ABAB
:104AD300839003121255681223E37407120C89742E
:104AE300230269BC7808120C54780E120C5C9003F4
:104AF30080120ABDEFF9740D120F16AC82AD8374E8
:104B030016120F16AA82AB831222C47408120C89E0
:104B130080CD124B22125CF6125A5212231222AC8F
:104B230082AD83E50C240BF582E50D22124B4C126A
:104B330060FBEB125CF6E8F0A3E9F022E41241E13A
:104B430022F0124B26124B4C223400F583E002472D
:104B53006CC082C083121B9E02482AC082C083128B
:104B63001BA402482AC082C083121BAA02482AC07F
:104B730082C083121BB002482A74F71206B074096C
:104B8300120F16E0F5087808120C60121BBC7401B2
:104B9300023B0CC082C083121BC802482AC082C0D9
:104BA30083121BCE02482AC082C083121BD4024840
:104BB3002A74F71206B0EAFEEBFF740169701079EC
:104BC300001211F67C1E7900EEFAEFFB1211780247
:104BD3003B0F74F41206B074F9120CE98A088B09BE
:104BE3008C0A8D0B7413120F16125A4B90125BE042
:104BF3007002A3E06027E9851082851183F07401B8
:104C0300120F167808120E96EAF8EBF97405120FD4
:104C1300161241D990125B1255681223E3024867BA
:104C2300C082C083121C0402482A74F71206B09093
:104C33001A65E0F97F00800B124E76540D64017003
:104C430001190F124E6E5003E970ED023B0F74F71A
:104C53001206B0901A66E0F97F00800B124E76546C
:104C63008D64817001190F124E6E5003E970ED02CD
:104C73003B0F74F21206B0890AE975F006A4F8A98D
:104C8300F0740C28FEE439FFEA2EFAE43FFB121914
:104C9300C48A088B09EA7001EB6029EEFCEFFD7909
:104CA300001219341260F0E50AF0E5082EF8E50960
:104CB3003FF9850882850983A3A3A3A3A3A3A3A381
:104CC300A3124B39AA08AB09023DA774F61206B02A
:104CD3008A088B09121154901A64E0FAE9C39A40C6
:104CE30009900350125A4B12115AE5082402FEE5AB
:104CF300093400FF900352126101F0900352E00463
:104D0300F0AA08AB091211608E828F83E0023F186C
:104D1300C082C0837900900350800109125A4B8AE4
:104D2300828B83E5827002E58370F002482A74F770
:104D33001206B0EAFEEBFFEE7001EF6058900350ED
:104D4300E07002A3E0604E9003501255807A007B1E
:104D530000800FAA82AB83125580E5827002E5833F
:104D63006033EE65827003EF658370E79003501242
:104D73004D9B687002EF698E828F8370081258ED25
:104D83009003508003126C14124DA012238AEEFA82
:104D9300EFFB1219CA023B0F124B50EE22E8F0A3AD
:104DA300E9F0023A92C082C0839003508004888263
:104DB30089831258EDE87001E9600B88828983E0EA
:104DC3007002A3E070E88A828B83E4F0A3F0E870BA
:104DD30001E96006888289838003900350124DECB9
:104DE30002482A851082851183EAF0A3EBF022742E
:104DF300F71206B0E9FC90035080048A828B831279
:104E03004E697001EB60177E0080010E124E59FD52
:104E1300EEC39D50E6EE124E8F6C70EF80047A0065
:104E23007B00023B0F74F71206B0E9FD7F0080019F
:104E33000F124E59FEEFC39E5019EF124E8F6D7035
:104E4300EFEF75F006A4F8A9F012613A7411124E4F
:104E53009E4CF0023B0F124E5D22EA240BF582EBCF
:104E63003400F583E022125A52EA22124E5DFCEF1F
:104E7300C39C22EF75F006A4FCADF0EA2CFCEB3DDD
:104E8300FD74112CF582E43DF583E02275F006A450
:104E9300F8A9F0EA28F8EB39F9741028F582E43917
:104EA300F583E02274F61206B012126E7A008011B6
:104EB300EA125DFF125A70124F25F0A312640AF032
:104EC3000A90281A1269FA40E77A00801B8A08754B
:104ED300090074037808120DA01263D9125A6CA347
:104EE300A3A3A3A3A3A3F00A9028171269FA40DD92
:104EF3007A00801A8A0875090074037808120DA0D5
:104F0300E50824AAF582E5093419125A620A1269DE
:104F1300F740E1902811E49390035EF0126A2302B4
:104F23003F3AA3124F2A2212640A026A1E74F11234
:104F330006B074F5120CE9EAFEEBFF89088C09E967
:104F4300A2E050127EFC7FFFA2E15005D2E4024FA3
:104F5300FAD2E3024FFA1212508A0A8B0BA80AA95B
:104F63000B900373E0687003A3E069700579000296
:104F730050DCAC087902EEFAEFFB12124AE960ED5D
:104F8300E508F50A780A120C601250E1120C89E95F
:104F930060030250DAE508C2E5F5089003C0E0704B
:104FA30058E508A2E640527403120F16AC82AD8393
:104FB300EEFAEFFB120F74E970391258F1EEFAEFC3
:104FC300FB1214E48A0A8B0BA80AA90BE87001E907
:104FD3006027E824020A0AE9122E66601CE50A2407
:104FE30002FCE50B3400FD7403120F16AA82AB8397
:104FF3001221DAE508D2E5F508900353E0F50E90A7
:1050030003731258FE780A120C5C7D017C00900336
:1050130053E0F9AA0AAB0B1212027402120C89E9CB
:10502300FA900353E004F0EA60030250DAE508A2C1
:10503300E550047A0E80027A067401120F1612618B
:10504300168A0A8B0BEA7001EB70030250D61250DA
:10505300F1E50A241AF582E50B123110EAF0A3EB0D
:105063001251011242DE88828983F0747855081246
:1050730051CFE50EF0EE88828983A3A3A31263F0D8
:10508300F0E488828983A3A3A3A3A3F0E508A2E5A0
:1050930050147403120F16AC82AD83E82406FAE9A8
:1050A3003400FB1221DA850A82850B83A3A374FDE6
:1050B300125A66E5096013C3941E500EE50A2413C1
:1050C300F582E50B123110E509F0AA0AAB0B1210B9
:1050D300AC80067910800279C7740B023A777902A3
:1050E3007CFE7DFFEEFAEFFB1211C0740122EA246D
:1050F30017F582EB125CF67401F012139A22F0E5B5
:105103000A1260FCE50B125CF62274F41206B08AF4
:10511300088B09E9FE12142AE960077AFF7BFF0274
:1051230051C2901ACAE0640260030251B57900AA21
:1051330008AB091262A88A0A8B0BA80AA90BE870AC
:1051430001E9605888828983A3A3A3A3A3E0640130
:10515300701C1251C51251CCE064FE7004A3E064CC
:10516300FF602B88828983A3A3125A4B80518882C4
:105173008983A3A3A3A3A3E064036028888289830C
:10518300A3A3A3A3A3E0640470047AFE808F8882A0
:105193008983A3A3A3A3A3E0640270089003BFE0E1
:1051A3006402700E1267957001EB6006AA08AB09E2
:1051B300800DAA08AB099003541255681223E30229
:1051C3004508900372E0025586A3A3A3A3126405C6
:1051D300A32274F71206B0EAFEEBFF120FC2E970C6
:1051E3000AEEFAEFFB120FCEE96006EEFAEFFB8050
:1051F300047AFE7BFF023B0F74F01206B08A0A8B1F
:105203000B8C0E8D0FE9FE75080012142AE9790044
:1052130060030252E0AA0AAB0B12627BA80CA90D31
:10522300E87001E9601988828983A3A3A3A3A3E09B
:105233006402704F9003BFE0640270030252DEAA5F
:105243000AAB0B90035A1255681223E3120FD48A48
:105253000C8B0DA80CA90DE87001E9607E8882898A
:1052630083A3A3A3A3A3E0A2E050707F01A2E15014
:10527300247901AC0AAD0BAA0EAB0F1211A2E9708F
:1052830020805888828983A3A3A3A3A3E064037027
:105293004A7F02800C88828983A3A3A3A3A3D2E1BC
:1052A300F0900373E0650E7004A3E0650F70107C4B
:1052B3001EEEF9AA0AAB0B121178750801801CEFD8
:1052C300F9AC0AAD0BAA0EAB0F1211A2E9700C7563
:1052D3000801EEF9AA0AAB0B1211F6A9080269BF7D
:1052E30074F11206B074EE120CE9124DE68C088DBF
:1052F300099003F4E07002A3E06012126DCB700218
:10530300E5836004A3E0700579000255518510829E
:10531300851183E0241DF50CA3E03400F50D850C05
:1053230082F583125580A3E0F50A125704FA8882A6
:105333008983A3A3A3A3E0F9EAFEE9FFAA08AB09C3
:105343001211FCE9FA850C82850D83126A16E02A94
:10535300F50B530A787808120C5C7D00AC0BA90E90
:105363007402120F161255B2120C89E9FA74036A09
:105373006096EA70447418550A7003025478E50A7B
:10538300D2E0F50AA2E45004D2E1F50AE50AF50CED
:10539300780C120C607901AC08AD09E9120F1612F2
:1053A30055AB120C89E970117421120F161255793D
:1053B300126A3A12558B121BC27421120F16125520
:1053C30068E064FF7004A3E064FF603B9003BFE008
:1053D3006402700302530B851082851183E012551A
:1053E3008B1255651223E3EA65087003EB650960C8
:1053F3000302530B1255611223E37421120F161289
:105403005568EAF0A3EBF07808120C5C7D01AC0B55
:10541300A90E7402120F161255B2120C89A90AEEC4
:10542300FAEFFB1212508A088B09A808A909900306
:1054330073E0687003A3E0696003025544EEFAEF7A
:10544300FB1255547001E9606C88828983A3A3A37E
:10545300A3E06401600D88828983A3A3A3A3E0640E
:105463000270527402120F16AC82AD83EEFAEFFB98
:10547300120F74805390036CE06019E50AF50C7801
:105483000C120C607901AC08AD09E9120F16125524
:10549300AB120C89E50AF50C780C120C601250E182
:1054A300120C89E960030253BC7421120F161255C2
:1054B30079A302540912139AEAFCEBFD7402120F4A
:1054C30016AA82AB831221DA8510828511831255C5
:1054D30095701C851082851183E02415125716FCE4
:1054E300A3E0FD740A120F16AA82AB831221DA120B
:1054F300559FE04430F5087808120C607403120FCE
:10550300168582088583097808120C5C740D120FC6
:10551300168582088583097808120C5CE50EF50868
:105523007808120C607900EEFCEFFD7406120F167A
:10553300125736125A4B12119C7406120C890253DD
:105543000B12559FA3A3A3A3E50BF01213B2023AC8
:1055530075120FD48A088B09A808A909E822EEFA64
:10556300EFFB90035612556C2212557022E0F8A3FC
:10557300E0F58388822212556C74FFF022124B509F
:105583008001F98882898322240B125727FAA3E02A
:10559300FB22126A1AA3A3A3E064012212571EF886
:1055A300A3E0F5838882A322125A4F1250EB2212F2
:1055B3005A4F12120274022274F11206B074EE12E0
:1055C3000CE9851082851183EAF0A3EB126A3B2470
:1055D3001D125716F8A3E0F9125704FC8882898339
:1055E300A3A3A3A3E0FBECF508EBF5098882898369
:1055F300A3A3A3A3A3E0FC88828983A3A3A3A3A358
:10560300A3E0FAE4CAFBECFEEBFF88828983A3A341
:10561300A3A3A3A3A3E0F50A88828983A3E0547814
:10562300F50BA2E4501912571A2408FCA3E0340026
:10563300FD740A120F16AA82AB831221DA7A08E5E7
:105643000BA2E5501D12571A2AF8A3E03400F9748F
:105653000828FCE439FD7402120F16AA82AB8312E8
:1056630021DAAC0AA90EAA08AB09121208E9FA74E6
:10567300036A7003025701900373E065087004A383
:10568300E065096064EA705AE50BF50C780C120CBE
:10569300607901E9120F1612572C120C89E9705E1A
:1056A300780B120C607403120F1685820C85830D20
:1056B300780C120C5C740D120F1685820C85830D09
:1056C300780C120C5CE50EF50B780B120C60A90A32
:1056D300EEFCEFFDAA08AB0912119C7406120C89AB
:1056E300801C74046A701780B7E50BF508780812FC
:1056F3000C607901E9120F1612572C120C89023A29
:105703007588828983A3A3E0F50E88828983A3A386
:10571300A3E0221257272212571E228510828511D9
:1057230083E0241D1269C4E022125736123A8D1207
:1057330050EB2212573A22E0240BFAA3E03400FB89
:105743008A828B832274F01206B074F2120CE9740D
:1057530002120F16E9F0EAFEEBFF8C088D09741EA6
:10576300120F16E0F50F7423120F16E0F50EA90FB2
:1057730012120E124DE67404120F167408F0E50EA1
:10578300A2E450037410F0E50EA2E55004E02408EF
:10579300F07403120F16AA82AB831214128A0C8BB5
:1057A3000DEA7001EB70030258D31250F1E50C249B
:1057B3001AF582E50D123110124DEC7406120F1614
:1057C300AC82AD83851082851183125A4B120F74FC
:1057D300E9600E1258D87406120F16A882A98380A6
:1057E30020E50EA2E45025851082851183E06E70BA
:1057F30003A3E06F70161258D8741F120F161258B5
:10580300EDE50C2418F582E50D124B36E50C122F4D
:105813003CE50D1231101258FE7402850A82850B85
:1058230083F0A3E50E125906E50FF0EE850A828593
:105833000B83A3A3A3F0EF850A82850B83A3A3A302
:10584300A3125906A3A3A3E508F0E509850A8285F7
:105853000B83A3A3A3A3A3126A3AFAA3E0FB121137
:10586300FC7402120F16E9FAE02A850A82850B837B
:10587300A3A3A3A3A3A3A3F0750800E50EA2E4507A
:1058830018741F120F161258F4E50A2408FAE50BD0
:105893003400FB1221DA750808E50EA2E5501C74EA
:1058A30021120F161258F4E50A2508F8E50B340007
:1058B300F9740828FAE439FB1221DA1258E7850C47
:1058C30082850D83A3A3124B39AA0CAB0D1210AC26
:1058D300740E0269BCE50C2416F582E50D125CF624
:1058E3007401F022851082851183124B502290039C
:1058F300801258F822E0FCA3E0FD22E0F50AA3E0C1
:10590300F50B22F0850A82850B83A3A32274F2127E
:1059130006B0EAFEEBFF8C088D09890A79001212A2
:10592300508A0C8B0DA80CA90D900373E0687003CB
:10593300A3E06979016019900373E06E7003A3E03B
:105943006F600DA90AAC08AD09EEFAEFFB12146003
:10595300023DA774F41206B07E0A7F18126A2390E0
:10596300035EE014F0700C902811E49390035EF052
:1059730012125C750800805E8E828F83A3A3A3A39B
:10598300E06049EE2404F582EF125A3E703E8E82A7
:105993008F83A3A3A3A3A3E06403701079028E8271
:1059A3008F83125A56A3125A4B1211A28E828F83DF
:1059B300A3A3A3A3A3E0640160128E828F83125A70
:1059C30064E48E828F83A3A3A3A3A3F00508EE242C
:1059D30007FEEF3400FF125EBC409D750800803A5D
:1059E30085080A750B007403780A120DA0E50A24D2
:1059F3006AF8E50B3419F9E82407F582E9125A3EEF
:105A0300701685080A750B007403780A120DA0E559
:105A13000A246AF8125A6CF00508902817125EBF20
:105A230040BE7508008009125EAA600214F00508E2
:105A330090281A125EBF40EF024508124E6314F01D
:105A430022124B223400F583125A522212573AE0A3
:105A53000255901258F8022F541260FBEB3400F5F4
:105A63008374FEF0A374FFF02288828983125A7430
:105A730022A374FEF0A374FFF0E402558674F612B9
:105A830006B0E9702479009003581255681223E395
:105A93008A088B09AE08AF0974FE6E700374FF6F3A
:105AA300701A902814E493601379019003581255E7
:105AB300681223E38A088B09AE08AF091213D6EEE6
:105AC300FAEFFB023F3AE028F8A3E039F92274F633
:105AD3001206B074F3120CE91219468A088B09AE48
:105AE30008AF09900373E06E7003A3E06F60E912DF
:105AF30013A6EA6E7002EB6F60DEEEFAEFFB121490
:105B03002AE970D4EE7001EF60CEE485108285112E
:105B130083F07401120F16EEF0A3EF125B3470B82A
