:020000040000FA
:06000000020E38020508A3
:03002B00020DF7CC
:03003300020A5569
:03004300020C901C
:03004B00020AA006
:030053000204693B
:03005B00020AAFE7
:03006300020ABED0
:03006B00020A3B4B
:100083000204A10101FF0503010F030003000300A4
:1000930003000300030003000300030005000A003C
:1000A300140028004F009E000000511451145114F5
:1000B300511413130D135114562100000000B821DD
:1000C300000000000C0000000C0001C305FF01004C
:1000D30001010100EA0E0000005F0FE80364006401
:1000E30000B8010202000800000502071E02051EF7
:1000F30003B80B020103320002F1FF0202020605FC
:10010300120E84700418181822120E66700D74FFF4
:10011300F61819F61819F61819F622E7548066F638
:10012300120ECD700F120EC370F014F608F608F617
:1001330008F680D1120EC3700CF608F60876800814
:10014300E6447F80EC120D00700C120CEB60BFE6EE
:100153005480F6E480BB120CEB700519191980A5C5
:10016300E869700C763F18768018F618F6E8F922DD
:10017300E6CDC0E018ECC0E0E633CD33CDD313F6C3
:10018300E719FCE7191933CC33C3947F400ECD9D97
:10019300502408E65480F6E418F6800FF4043D1466
:1001A300501408E6447FF6187680E418F618F6D063
:1001B300E0FCD0E0FD22CCD313CCFD18E4C6CBC0C9
:1001C300E018E4C6CAC0E00808ED08C633E613F633
:1001D30018E433C675F003C3CA97CA09CB97CB1982
:1001E3009C40047D08802EBD00030202AC16B6FFBE
:1001F300050606081618C3CA33CACB33CB33CA273E
:10020300CA09CB37CB193CC37D08803E187D082033
:10021300E75CC633C6CA33CACB33CB33DDF1D5F083
:10022300EB30E77BCA97CA09CB974ACB199C406F3F
:100233004B7025E620E0218066187D08C3CA97CA63
:1002430009CB97CB199CD3C633C6CA33CACB33CB9E
:100253003350C9DDE7D5F0E1D3E4C636C608C63668
:10026300C608C636C608C636C61818188031C3CAAB
:1002730097CA09CB97CB199CB34097C633C6CA33E9
:10028300CACB33CB33DD34D5F02EC6A2E0C640C88B
:10029300CA27CA09CB37194A70BECB3CB480B90808
:1002A30008E63308E633601F181818D0E0FAD0E0E8
:1002B300FBD0E0FCD0E0FD22187D08CA27CA09CB99
:1002C30037CB193CD3808013F618E4B67F11F618A8
:1002D300B6FF0EF618C60470D20808768080CAF6F8
:1002E30018F618F680C500120E84604F120E666071
:1002F30012E7548066F6120CE87011120EC3703BBD
:10030300090909F4F618F618F618F622120CFD700E
:1003130015120ECD08080860EAE6447FF6187680C9
:1003230018E4F618F622120ECD6016120EC37012E0
:10033300E4F608F608F608E65480F60909091818E1
:100343001822EAC0E0EBC0E0ECC0E0EDC0E0E687D5
:10035300F0A4FBACF008E687F0A42CFCE435F0FA3B
:100363001809E687F0A42C4B60027401CA35F0FC2F
:10037300E433FB09E687F0D2F7A42CCB35F0FC1964
:1003830008E687F0A42BCC35F0FBE433FD0819E62F
:1003930087F0D2E7A42C4ACB35F0CD3400FC09E634
:1003A30087F0D2E7A42DCC35F0FDE433FA0918E643
:1003B30087F0D2F7A42CCD35F0CA3400FC08E687C9
:1003C300F0D2E7D2F7A42ACC35F07A7E20E70B0AE5
:1003D300CB33CBCD33CDCC33CC33CB3350147004B0
:1003E300ED30E00ED2F1E4CD3DCDCC3CCC3B50051D
:1003F300DA05C2F1EB547FC63308E63392F0FBE72C
:100403003309E733C39A502D2B70190C0D4C4D70E3
:10041300151806E608C333700D20F10AA2F013F68F
:10042300E418800B4024E4F630F002768018F618C6
:10043300F618F68024D33B14501074FFA2F013F681
:10044300187680E418F618F6800FA2F013F618E673
:100453003303F618ECF618EDF6D0E0FDD0E0FCD04F
:10046300E0FBD0E0FA22C0E074F2120782E5A7F8BD
:10047300E5A1F95854106008121BBF53A1EF80196E
:10048300E8A2E0C0D0E9A2E092F0120DAD1581829E
:10049300F05006121C6D53A1FE7F01020896C0E0C6
:1004A30074F21207829061A4E0F8759B00E59158FD
:1004B300540860087591F7121C0D802AE591585471
:1004C3001060087591EF121C13801BE8A2E0C0D0E6
:1004D300E591A2E092F0120DAD158182F05007E094
:1004E300C2E0F0121D3F9061A3E0F8E5E95854041F
:1004F300600E121D1575E9FB906193E0A2E640F2D0
:100503007F01020896C0E074F21207829061A5E0B1
:10051300F8E5BF585404600653BFFB121D577F0113
:10052300020896C3E498F8E499F91205678026C394
:10053300E49AFAE49BFBE920E7E9120567E498F8FB
:10054300E499F922C3E498F8E499F9120567E49869
:10055300F8E499F9C3E49AFAE49BFB22EB20E7CF92
:10056300E920E7E0B90010BB0008E88AF084F8AAA4
:10057300F022E4FBC8FA22EB70227B10C833C8C90F
:1005830033C9335007C39AC3DBF280069A50012A5A
:10059300DBEAC833F4C8C933F4C9FA2275F008E4B6
:1005A300C833C8C933C933C99AC99B5004C92AC9B6
:1005B3003BD5F0ECFBC833F4C8E4C9FA22080808B9
:1005C300EAC0E0EBC0E086F0E7A4FA180986F0E79A
:1005D300A42AFA180986F0E7A42AFA180986F0E78C
:1005E300A42AFA1986F0E7A4FBE5F02AFA1908868B
:1005F300F0E7A42BFBE5F03AFA190886F0E7A42B01
:10060300FBE5F03AFA18180986F0E7A4C5F02BFBCE
:10061300E43AFA1908E7C5F0C6A426F6E5F03BFB71
:10062300E43AFA1886F0E7A4F6E5F00826F6E43B88
:1006330008F6E43A08F6D0E0FBD0E0FA22E4CFC0B3
:10064300E0E4CEC0E0E4CDC0E0E4CCC0E075F0204F
:10065300C3E633F608E633F608E633F608E633F680
:10066300181818EC33FCED33FDEE33FEEF33FFC304
:10067300EC9709ED9709EE9709EF97191919400FB0
:10068300FFEC97FC09ED97FD09EE97FE191906D5C6
:10069300F0BEECF709EDF709EEF709EFF7191919B1
:1006A300D0E0FCD0E0FDD0E0FED0E0FF222510C575
:1006B30082C0E0E51134FFC583C0E0E510C3958235
:1006C30024F810AF08858311858210800885831173
:1006D300858210D2AFCEF0A3E520F0A37808E60818
:1006E300F0A3DEFAEFF0A3E58124FAF8E608F0A31D
:1006F300E608F0A3E608F0A30808E608F0A3E60876
:10070300F0A315811581D0E0FED0E0F815811581A5
:100713001581E8C0E0EEC0E02212073330F0051285
:1007230007788000C6CC18C6CB18C6CA18C6F922EB
:10073300E4C9C608CAC608CBC6D3330308CCC6333C
:1007430092F0C3947F402E94184019C9B90704CA84
:10075300CBCC225025C309CA33CACB33CBCC33CC41
:1007630033D9F422F4600DC9CCC313CB13CBCA1312
:10077300CAD9F6CC22E4FCFBFA2214FCFBFA22C011
:10078300D02510C582C0E0E51134FFC583C0E0E584
:1007930010C3958224F310AF0885831185821080DE
:1007A30008858311858210D2AFC8F0A3E9F0A3EACC
:1007B300F0A3EBF0A37908E709F0A3D8FAECF0A3D0
:1007C300EDF0A3EEF0A3EFF0A3D0E0F0A3D0E0F0C0
:1007D300A3D0E0F0A3E520F0A3E5F0F0A322E979AC
:1007E3009EC608CAC608CBC608CCC6C37020799675
:1007F300CACBCC7019798ECBCC70137986CC700EA2
:10080300F9802ACA33CACB33CBCC33CC331930E784
:10081300F2CCCBCA3350147004EA30E00DE4CA3A88
:10082300CACB3BCBCC3CCC500209C3E913C6CC1892
:100833002313C6CB18C6CA18C6F922120EB8B900BC
:1008430003020880E490040078C879118002F0A3C1
:10085300D8FCD9FA9014C7AA82AB83900086787E1D
:1008630079018015E493A3AC82AD838A828B83F0F4
:10087300A3AA82AB838C828D83D8E9D9E775822EB4
:100883007583F97402120BEF75820375832074006C
:10089300120BEF851183851082E0C0E0A3E0F9A37A
:1008A300E0FAA3E0FBA37808E0F608A3DFFAE0FC94
:1008B300A3E0FDA3E0FEA3E0FFA3E0C0E0A3E0C04C
:1008C300E0A3E0F5D0A3E0F520A3E0A3F5F010AF9B
:1008D300088583118582108008858311858210D253
:1008E300AFD082D083D0E0F8D0E032D083D082EC96
:1008F300C0E0EDC0E0E493A3FCE493A3FDED4C6002
:100903000D1209C6EC24FFFCED34FFFD80EFE493E8
:10091300A3FCE493A3FDED4C600D120AFAEC24FF53
:10092300FCED34FFFD80EFD0E0FDD0E0FCE493A3C9
:10093300C0E0E493C0E022D083D082E9C0E0E49336
:10094300A3C386F0C5F095F0F908E493A386F0C538
:10095300F095F0700BE493A3C3994005E90480027A
:10096300A3E475F002A42582F582E5F03583F583CF
:10097300D0E0F9E493A3C0E0E493C0E022851183BF
:10098300851082E0A3FEE0A3F5207808E0A3F60833
:10099300DFFAE0A3FFE0A3C0E0E0A3C0E0E0A3C070
:1009A300E0E0A3C0E0E0A3C0E010AF0885821085BB
:1009B30083118008858210858311D2AFD083D082C2
:1009C300020BF5C0E0C3E4939608740193961840B4
:1009D3000FE4936670080874019366187000701929
:1009E300A3A3C3E49396087401939618A3A3400D9D
:1009F300D0E0D0E0D0E002092AA3A3A3A3A3A3D00D
:100A0300E022D083D082C5F0E493A3C5F0C395F070
:100A1300F5F0E493A3C395F04005E5F0048001E409
:100A230075F002A42582F582E5F03583F583E4931E
:100A3300A3C0E0E493C0E022C0E074F2120782E5B1
:100A430089A2E15003121A63758900C2C57F0102AE
:100A53000896C0E074F2120782E58BA2E0500312FD
:100A63001A63758B00C2E87F010208967404800440
:100A730074028000CCC0E0EDC0E0E510C39CCCADB7
:100A83001150011D10AF068C108D1180068C108D36
:100A930011D2AF120B71D0E0FDD0E0FC22C0E074A4
:100AA300F2120782121AE77F01020896C0E074F27D
:100AB300120782121AED7F01020896C0E074F21247
:100AC3000782121AF37F0102089674028000CCC0D9
:100AD300E0EDC0E0E510C39CCCAD1150011D10AF9B
:100AE300068C108D1180068C108D11D2AF120B4F16
:100AF300D0E0FDD0E0FC22C0E0C0F088F0E49366D3
:100B030070080874019366187000A8F0A3A3700B13
:100B1300D0F0D0E0D0E0D0E002092AA3A3D0F0D0F7
:100B2300E022D083D082CCC0E0E493A36006120B12
:100B3300B11470FAE493A36006120CBD1470FAD0DA
:100B4300E0FCE493A3C0E0E493C0E022CAC0E0E485
:100B530093A3C582CCC582C583CDC583F0A3C582CB
:100B6300CCC582C583CDC583DAE5D0E0CA22CAC02D
:100B7300E0E0A3C582CCC582C583CDC583F0A3C500
:100B830082CCC582C583CDC583DAE6D0E0CA2270A4
:100B930009080808226016181818C6C333C608C601
:100BA30033C608C633C608C633C6D5E0EA22C0E05A
:100BB300E493A3D39C5010E493A3C39C400AD0E0D6
:100BC300D0E0D0E0020B42A3A3A3D0E022C008C32D
:100BD300E096F50808A3E096420808A3E0964208C9
:100BE30008A3E09645087001D3D00822C09FF59F63
:100BF300E473D09F22D083D082C09FE493C0E0747B
:100C03000193C0E0740293F59F227404800A740375
:100C13008006740280027401C0E0F404120C28D030
:100C2300E0120E93222510F58210AF08F510400252
:100C330015118008F51040021511D2AF85118322DA
:100C4300C0D0251010AF08F510500205118008F52B
:100C53001050020511D2AFD0D022BB0102E722C04F
:100C630082C08389828A83BB0003E08002E493D03D
:100C730083D082226016080808C6C313C618C61399
:100C8300C618C613C618C613C6D5E0EA22C0E07458
:100C9300F2120782C2C0E5D1A2E45003121B237FE4
:100CA30001020896251010AF08F5104002151180B7
:100CB30008F51040021511D2AF22C0E0E493A36CF3
:100CC3007009D0E0D0E0D0E0020B42A3A3D0E02231
:100CD300C3E09608A3E09608A3E09608A3E096A2D3
:100CE300D265D03322181818E6084608700AE608B9
:100CF300C3337005E633F4220822191919E70947AB
:100D030009700AE709C3337005E733F4220922E0C7
:100D130066701008A3E066700A08A3E06670040812
:100D2300A3E06622C3E096F008A3E096F008A3E0F0
:100D330096F008A3E096F022E026F608A3E036F644
:100D430008A3E036F608A3E036F622E026F008A36F
:100D5300E036F008A3E036F008A3E036F022E627F9
:100D6300F60809E637F60809E637F60809E637F61E
:100D730022E056F008A3E056F008A3E056F008A3DB
:100D8300E056F022E657F60809E657F60809E65753
:100D9300F60809E657F622E056F608A3E056F608E9
:100DA300A3E056F608A3E056F622C0E0E8C0E0E56B
:100DB3008124FCF8E6A2E7D0E0F8D0E022E647F68B
:100DC3000809E647F60809E647F60809E647F62262
:100DD300700422600D18C6C333C608C633C6D5E0F7
:100DE300F41822E4C396F608E496F608E496F608A7
:100DF300E496F622C0E074F2120782C2C7121C55B1
:100E03007F01020896C3E09608A3E09608A3E09644
:100E130008A3E09622C6F4C608C6F4C608C6F4C6FC
:100E230008C6F4C622C3E7960809E7960809E796B9
:100E33000809E7962275D000758140751000751179
:100E4300040002083E600C08C6C313C618C613C6C6
:100E5300D5E0F422E6F008A3E6F008A3E6F008A341
:100E6300E6F022E7094709C3134709336002E73372
:100E7300F422E0F608A3E0F608A3E0F608A3E0F600
:100E830022E6084608C3134608336002E633F42219
:100E9300CAC0E0E6F0A308DAFAD0E0FA22E0FAA347
:100EA300E0FBA3E0FCA3E0FD22EAF0A3EBF0A3EC5C
:100EB300F0A3EDF022E5C754F84401F5C779012208
:100EC300E7C33319471947194722E6C333184618AE
:100ED300461846222510F582E43511F58322120BBC
:100EE300F8278102120BF8C58102120BF84882021F
:100EF300120BF8638202120BF88A8202120BF8C5F6
:100F03008202120BF8058302120BF8558302120BAF
:100F1300F80F8402120BF8948402120BF81B85025B
:100F2300120BF8038602120BF85C8602120BF8D43C
:100F33008602120BF8E68602120BF8F08602120BF9
:100F4300F8CD8702120BF82C8802120BF82E8902B7
:100F5300120BF8A78902120BF8FB8902120BF87027
:100F63008A02120BF81C8C02120BF8308C02120B43
:100F7300F8928C02120BF8178D02120BF8648D0293
:100F8300120BF88C8E02120BF8778F02120BF8E417
:100F93008F02120BF8609002120BF8C29002120B30
:100FA300F8FA9002120BF8D59102120BF8D59202BF
:100FB300120BF8329302120BF87B9302120BF8A375
:100FC3009302120BF82C9402120BF8C29402120B28
:100FD300F8289502120BF8399502120BF8B2950214
:100FE300120BF83F9602120BF8819602120BF811BE
:100FF3009702120BF8469702120BF8879702120B0F
:10100300F8209902120BF8BF9A02120BF8FB9A020E
:10101300120BF81C9C02120BF8EB9D02120BF8F555
:101023009D02120BF8FF9D02120BF8099E02120B90
:10103300F8139E02120BF81D9E02120BF8279E0254
:10104300120BF8759E02120BF8999E02120BF8BD53
:101053009E02120BF8169F02120BF85B9F02120BF3
:10106300F8799F02120BF8F09F02120BF83AA002D4
:10107300120BF870A002120BF805A202120BF8AAC9
:101083002300120BF8F62300120BF8C22500120BF3
:10109300F8002600120BF8A22600120BF8D6260041
:1010A300120BF8FB2600120BF8582800120BF85805
:1010B3002900120BF82A2C00120BF81B2D00120B1F
:1010C300F8C52D00120BF8E02E00120BF8193200B0
:1010D300120BF8A53200120BF8DA3200120BF8B239
:1010E3003300120BF8883400120BF82B3500120B67
:1010F300F8863500120BF8B33500120BF8D535001E
:10110300120BF81B3800120BF8CD3800120BF82421
:101113003900120BF8913900120BF8523A00120BF6
:10112300F8873A00120BF8DB3A00120BF8103B0079
:10113300120BF85E3B00120BF8B53B00120BF840A4
:101143003C00120BF8C93D00120BF8863E00120B4F
:10115300F8B53F00120BF8244200120BF8CC420002
:10116300120BF8EF4400120BF88C4500120BF8D366
:101173004500120BF89A4700120BF8AE4700120B0A
:10118300F8BB4700120BF8E54700120BF8F14700D4
:10119300120BF80F4800120BF8D94800120BF80392
:1011A3004900120BF8104900120BF8684900120BA2
:1011B300F8EE4900120BF8D54A00120BF8C74B00A2
:1011C300120BF8774C00120BF8154D00120BF82C8C
:1011D3004D00120BF8654D00120BF8834D00120BF6
:1011E300F8C74D00120BF8EE4D00120BF8EA4E0053
:1011F300120BF8654F00120BF8885000120BF89A87
:101203005100120BF88B5200120BF8F25200120B22
:10121300F8CC5300120BF8005400120BF87654006C
:10122300120BF89B5400120BF8C15400120BF8F781
:101233005400120BF8FB5600120BF8ED5700120B7B
:10124300F8B25800120BF8325A00120BF87B5A000E
:10125300120BF8A75A00120BF82E5B00120BF8962C
:101263005B00120BF8E85B00120BF82F5C00120B0B
:10127300F85B5C00120BF8905C00120BF8B75C0093
:10128300120BF8155D00120BF8F25D00120BF85A01
:101293005E00120BF8835E00120BF8F35E00120B74
:1012A300F8685F00120BF8BA5F00120BF8DF5F00FB
:1012B300120BF8256000120BF8426000120BF8DFE6
:1012C3006000120BF8A4FF01120BF8EFFF01120BE1
:1012D300F877B701120BF8C2B701120BF81DB8016A
:1012E300120BF86EB801120BF889B801120BF8BF94
:1012F300B801120BF8E0B801120BF8EAB801120BAF
:10130300F8FFB901120BF81DBA01120BF88DBA01DF
:10131300120BF8A0BA01120BF8AEBA01120BF84F78
:10132300BB01120BF823BC01120BF83EBD01120BDB
:10133300F8BABD01120BF8C4BD01120BF837BE0198
:10134300120BF84EBE01120BF890BE01120BF8CE31
:10135300BE01120BF8FDBE01120BF834BF01120BD4
:10136300F852BF01120BF876BF01120BF8B7BF0199
:10137300120BF8A2C001120BF8E8C001120BF8130C
:10138300C101120BF880C101120BF8A7C101120BA6
:10139300F8ECC101120BF8FAC101120BF853C201A8
:1013A300120BF890C201120BF8D7C201120BF80806
:1013B300C301120BF82BC301120BF836C301120B36
:1013C300F854C301120BF810C401120BF81AC4012C
:1013D300120BF859C401120BF86FC401120BF87801
:1013E300C401120BF8BCC401120BF8D0C401120BD8
:1013F300F8BBC501120BF8CEC501120BF8E3C5010A
:10140300120BF88BC601120BF8D7C601120BF88D1D
:10141300C701120BF898C701120BF8E6C801120BAB
:10142300F812C901120BF853C901120BF86DC90167
:10143300120BF8A4C901120BF807CC01120BF88F99
:10144300CC01120BF80FCD01120BF852CF01120B86
:10145300F862CF01120BF865CF01120BF871CF01BF
:10146300120BF885CF01120BF8A4CF01120BF8D79A
:10147300CF01120BF89CD001120BF803D101120B10
:10148300F867D101120BF8F1D101120BF8A2D201C6
:10149300120BF8C9D201120BF859D301120BF865DC
:1014A300D301120BF894D301120BF8B6D301120B2C
:1014B300F8DDD301120BF842D401120BF8F5D50174
:1014C300120BF8F8D501120BF862D601120BF8557E
:1014D300D701120BF83AD801120BF8C5D801120B39
:1014E300F808DA01120BF8CBDA01120BF804DB016E
:1014F300120BF835DB01120BF83EDB01120BF8225D
:10150300DC01120BF8B2DC01120BF850DD01120BF7
:10151300F810DE01120BF889DE01120BF8B8DE01B8
:10152300120BF8F5DE01120BF855B302120BF86734
:10153300B302120BF8E3B302120BF81DB402120B41
:10154300F874B402120BF8F6B602120BF862B90281
:10155300120BF830BC02120BF868BC02120BF88AAB
:10156300BC02120BF806BD02120BF844BD02120BAB
:10157300F869BD02120BF899BD02120BF8DCBD022B
:10158300120BF8698703120BF8988703120BF8A65E
:101593008703120BF8BD8703120BF8D68703120BD0
:1015A300F8F28703120BF8138803120BF83688033B
:1015B300120BF86C8803120BF8A48803120BF8C003
:1015C3008803120BF8088903120BF8829203120B9B
:1015D300F8949203120BF8C39203120BF82F9303A0
:1015E300120BF820BE02120BF82EBE02120BF87675
:1015F300BE02120BF824BF02120BF847BF02120BF4
:10160300F838C002120BF863C302120BF871C3025D
:10161300120BF8C6C302120BF8F8C302120BF85BE5
:10162300C402120BF8CFC402120BF827C502120B27
:10163300F894C502120BF80FC602120BF870C6021B
:10164300120BF8B2C602120BF8C4C602120BF8D67C
:10165300C602120BF8F9C602120BF8A5C702120B49
:10166300F8EBC702120BF8609903120BF81C9A03EC
:10167300120BF83E8D03120BF8AC8D03120BF8D34B
:101683008D03120BF8C48E03120BF8196100120BB1
:10169300F8FC6100120BF8426200120BF82E640092
:1016A300120BF8736400120BF867AF01120BF88783
:1016B3006600120BF8866700120BF83D6800120BE8
:1016C300F8B16800120BF8586900120BF8AE690004
:1016D300120BF80C6A00120BF8596A00120BF8D6B9
:1016E3006B00120BF8AD6D00120BF89E6F00120B1E
:1016F300F8AC6F00120BF8087000120BF88C730033
:10170300120BF8129F03120BF8469D03120BF8A25B
:101713008002120BF8178003120BF8A88003120B38
:10172300F8E88003120BF8038103120BF82A8103F4
:10173300120BF85E8103120BF8928103120BF8C7A8
:101743008203120BF85F8B03120BF88A8B03120BC5
:10175300F8DB8B03120BF8F78B03120BF8398C03AE
:10176300120BF8648C03120BF80A8D03120BF82684
:101773008D03120BF8CCEF01120BF874F001120B6E
:10178300F81AF101120BF834F201120BF887F40185
:10179300120BF874F501120BF8BAF701120BF816D5
:1017A300F801120BF830F801120BF86AFB01120B67
:1017B300F872FB01120BF87AFB01120BF882FB01A2
:1017C300120BF88AFB01120BF892FB01120BF89A29
:1017D300FB01120BF8DB7300120BF8287400120BD9
:1017E300F8367400120BF8DA7400120BF8697500FE
:1017F300120BF8B87500120BF8BB7500120BF8D377
:101803007500120BF8C97700120BF8577800120B0A
:10181300F8927800120BF8357A00120BF8507A0020
:10182300120BF89D7A00120BF8DB7A00120BF837D3
:101833007B00120BF84B7B00120BF84E7B00120B54
:10184300F8CC7B00120BF8537D00120BF8977D0048
:10185300120BF8CB7D00120BF8607E00120BF8849C
:101863007E00120BF8877E00120BF88A7E00120BA3
:10187300F80B7F00120BF8387F00120BF8587F002B
:10188300120BF8C07F00120BF8FD7F00120BF8BC9F
:101893009B03120BF8CD9B03120BF80D9C03120B49
:1018A300F889D102120BF8DAD102120BF8CAD2026C
:1018B300120BF800D302120BF8E1D402120BF82733
:1018C300D502120BF87DD502120BF8E6D502120BE6
:1018D300F822D702120BF8C6D802120BF8E8D80286
:1018E300120BF83CD902120BF8C0D902120BF809FB
:1018F300A302120BF829A302120BF846A302120B40
:10190300F84DA402120BF8C2A402120BF82CA50284
:10191300120BF8D4A502120BF87CA602120BF84F97
:10192300A702120BF809A802120BF84FA802120B18
:10193300F8EFAD02120BF8FDAF02120BF83CB00248
:10194300120BF812B102120BF852B202120BF89FEB
:10195300B202120BF836DF01120BF80BE001120B87
:10196300F8A0E001120BF842E101120BF85DE2016D
:10197300120BF8F7E201120BF847E401120BF89986
:10198300E501120BF82AE601120BF861E801120BCC
:10199300F821E901120BF8B7E901120BF833EB0157
:1019A300120BF8C6EC01120BF85BED01120BF86C8D
:1019B300EE01120BF8D39E03120BF8E19E03120BF8
:1019C300F8EF9E03120BF8548503120BF8B7850347
:1019D300120BF81F8603120BF87C8603120BF8DE3A
:1019E3008603120BF8BFF902120BF81DFA02120B51
:1019F300F8C5FB02120BF84A9C03120BF88F9C03E9
:101A0300120BF8038F03120BF8118F03120BF82834
:101A13009F03120BF81A9B03120BF82A9B03120B5A
:101A2300F84D9B03120BF8AE9B03120BF82697039A
:101A3300120BF84D9703120BF8D29703120BF82FE2
:101A43009803120BF8DD9D03120BF8489803120B51
:101A5300F86E9803120BF8D89803120BF8E3980367
:101A6300120BF82B9903120BF82BE502120BF83922
:101A7300E502120BF87CE502120BF898E502120B53
:101A8300F81BE602120BF824E702120BF849E702EF
:101A9300120BF86BE702120BF88DE702120BF8B585
:101AA300E702120BF8F1E702120BF83FE802120B00
:101AB300F8B6E802120BF881E902120BF83DEA02CC
:101AC300120BF854EA02120BF8CEEA02120BF88B4F
:101AD300EB02120BF857EE02120BF8C69003120B2F
:101AE300F8039103120BF8209103120BF8A891034A
:101AF300120BF8159203120BF8F4D902120BF83EED
:101B0300DA02120BF8B0DA02120BF86FDB02120BD7
:101B1300F8EADB02120BF842DD02120BF8B1DE0227
:101B2300120BF814DF02120BF85EDF02120BF86CD3
:101B3300DF02120BF87EDF02120BF894DF02120BA6
:101B4300F8AADF02120BF8B8DF02120BF814E00256
:101B5300120BF8E9E002120BF820E102120BF8472E
:101B6300E102120BF860E102120BF87EE102120BA4
:101B7300F818E202120BF8E9E202120BF895E302FD
:101B8300120BF856E402120BF8A5E402120BF8E864
:101B9300E402120BF8788903120BF8AA8903120BDB
:101BA300F8BB8903120BF8038A03120BF8368A0376
:101BB300120BF8698A03120BF8DD8A03120BF80281
:101BC3008B03120BF814F602120BF84EF602120BEB
:101BD300F898F602120BF8C0F602120BF805F7029A
:101BE300120BF83AF702120BF872F702120BF89F76
:101BF300F702120BF8C5F702120BF820F802120BCA
:101C0300F848F802120BF8CFF802120BF8E7F802C3
:101C1300120BF8FCF802120BF8D39C03120BF822F8
:101C23009D03120BF8A2FB01120BF88FFC01120BA0
:101C3300F89CFC01120BF8B4FC01120BF80BFD012C
:101C4300120BF860FD01120BF8F3FD01120BF8758E
:101C5300FE01120BF8CAFE01120BF805FF01120B6D
:101C6300F85EFF01120BF872FF01120BF885FF01FA
:101C7300120BF8749A03120BF89D9A03120BF8CA0D
:101C83009A03120BF8F29A03120BF8D88203120B81
:101C9300F8F78203120BF8088303120BF816830379
:101CA300120BF83A8303120BF84D8303120BF860FF
:101CB3008303120BF8788303120BF8AE8303120B22
:101CC300F8EC8303120BF81D8403120BF86F8403E3
:101CD300120BF8BE8403120BF8DE8403120BF8EC2C
:101CE3008403120BF8018503120BF8478503120BCB
:101CF300F8009E03120BF81DC802120BF856C80217
:101D0300120BF87EC802120BF895C802120BF8B436
:101D1300C802120BF822C902120BF85AC902120B9D
:101D2300F851CD02120BF8A1CE02120BF8DBCE0252
:101D3300120BF835CF02120BF842D002120BF86ED9
:101D4300D002120BF887D002120BF89BD002120BB1
:101D5300F8E4D002120BF840D102120BF85AD10268
:101D6300120BF8C59503120BF8D99503120BF8FF64
:101D73009503120BF8229603120BF84C9603120BE1
:101D8300F8789603120BF8979603120BF8CC960388
:101D9300120BF8EF9603120BF8999D03120BF8B68A
:101DA300EE02120BF8CAEE02120BF8F8EF02120B56
:101DB300F82AF002120BF851F002120BF879F00234
:101DC300120BF892F002120BF8CDF002120BF83757
:101DD300F102120BF873F102120BF8BFF102120BAE
:101DE300F8EFF102120BF812F202120BF83B940314
:101DF300120BF8539403120BF8389503120BF8F1F6
:101E0300FE02120BF84BFF02120BF88BFF02120BB0
:101E1300F8CEFF02120BF818FC02120BF836FC0284
:101E2300120BF889FC02120BF8A8FC02120BF8D271
:101E3300FC02120BF8EEFC02120BF8E9FD02120B86
:101E4300F8F9FD02120BF815FE02120BF8C7FE0299
:101E5300120BF8D4FE02120BF8E2FE02120BF86A20
:101E6300F202120BF80FF602120BF87E9E03120B0E
:101E7300F8489E03120BF8AB9E03120BF8F49E0373
:101E8300120BF85AAF01120BF838AC01120BF8D54C
:101E9300A901120BF86EA801120BF8BDA701120BD2
:101EA300F8EDA501120BF83CA401120BF8CDA30128
:101EB300120BF8408002120BF8128002120BF87119
:101EC300A301120BF814A301120BF8008002120BEA
:101ED300F81CB601120BF8EAA201120BF8E2A001FA
:101EE300120BF8AEA001120BF86CA001120BF84113
:101EF300A001120BF8839F01120BF8369F01120BFE
:101F0300F8AC9D01120BF8A99D01120BF8AF9C01CF
:101F1300120BF87B9C01120BF8B69B01120BF8E92C
:101F23009901120BF89C9901120BF86D9901120B90
:101F3300F86A9901120BF8FEB501120BF8FEB40111
:101F4300120BF863B401120BF826B301120BF8E776
:101F5300B001120BF85D9901120BF8209901120BD5
:101F6300F8129901120BF85EB001120BF8BE97013B
:101F7300120BF8429701120BF80F9701120BF8B3EB
:101F83009601120BF8008003120BF818B001120B24
:101F9300F8869601120BF88D9301120BF88F9201BC
:101FA300120BF8169201120BF8E19101120BF8AA29
:101FB3009101120BF89E9101120BF8FE9001120B86
:101FC300F83A9001120BF8008E01120BF8258B01E1
:101FD300120BF8E68A01120BF8858901120BF8310E
:101FE3008901120BF8788801120BF8DE8701120BB6
:101FF300F87D8701120BF8B78701120BF83F6600D3
:1020030000000080FBE47300013636010100010289
:102013000100010301000104010606050200000797
:102023000100340801000F090401010D0100FF0E36
:1020330008000017020000190100FF1A0100011B2C
:102043000100051C0100081D0200001F0100012002
:10205300010001210200002301000F2402000026D9
:1020630001000127010308280200FF2A0100072BB2
:102073000102402C0100002D0100012E0100012F5F
:102083000100FF30010B1C310800003A0100080178
:10209300017101010101011101010131010101017D
:1020A300018001100161013B00140063017301729F
:1020B30001620143010001130106013D01350004E2
:1020C30001120100010001000100010401040133B8
:1020D3000133013C01440132013600000100016576
:1020E3000100013500810100010501820183010026
:1020F3000103027102300160021102700201020247
:102103000202028002100261023A0041006302737C
:10211300027202620243020002130238000002004C
:10212300020402120200020002000200020402047E
:1021330002370037003C024402000239000002006B
:102143000265020002350281020002050282028357
:1021530002000203007100300160001100700031C1
:10216300022003500480001000610000001400638B
:1021730000730072006200430000001300060000B9
:102183000000000400120000000000000000000432
:10219300000400370037003C024400000000000048
:1021A300000000650000003500810000000500000C
:1021B3000083000000010371030103010301030114
:1021C30003010322030203010310030003000300BE
:1021D3000300030003000300034203000324030678
:1021E300030003000304031203250323032503232E
:1021F3000304030403000300030003440300030078
:102203000323030003650321003503810300030552
:102213000300030003000336000100060000000F63
:102223000000000000000000000000000003FFFFAA
:1022330000000403FFFF0000FFFF0FF4010005C4CB
:10224300040320000100000B000000000000000058
:102253000301030003000400080010001F003E00F8
:102263007B00F600EC01D703AF075D0FB91E713D8C
:1022730000000100731902000D1903001319040073
:10228300191905001F1906002B19FFFF00006D1314
:102293009D137313791397138B138513A313A91327
:1022A300AF13BB137F1367136113D5C5C5B5A5A5BD
:1022B30095858575756565555545453535252515CB
:1022C300050AEB1002B51005C71007BB100CA310CD
:1022D3000DAF10FF00009C36063A703DD9404344D1
:1022E300AD47174B814EEA5100160F00000B150B3B
:1022F300020002220F32000006567777777777774E
:102303007777777777777777770001020304050686
:102313000708090A0B0C0D0E0F51146314691437C7
:10232300136F1431133D13C914E714ED14CF14DBE9
:1023330014D51400034948424D181725050200011E
:1023430019161816161523030030301718192130E3
:102353001B1D1F300C0E020B040B0A0708000F3065
:102363003016181920231A1C1E3000383C3E363B09
:102373003B352B432C9113B513E114C113C713BD84
:102383001475147B14871481140005150D091008A6
:102393000400000000000000BE040A0E0004001543
:1023A300000405080F040CC082C083E99004BBF04D
:1023B300E4900470F0121DED9004CEE4F0A3F090CD
:1023C30004BCF0A3F012124D121DF3900440E4F08C
:1023D300A3F09004DEE07002A3E060099004DE1233
:1023E30049531220089023A7E493FA7902121E4D51
:1023F3000245CC74F21206B0EAFEEBFF74805FF97B
:10240300E47001E9706CEEA2E040030224929004B0
:1024130075E0640F700B790012108BE960031225CD
:10242300B874016EFAEFFB02259D0CEC75F003A462
:10243300A9F024C4F582E93422F583E49364FF60B0
:102443002AE493FA8508828B83E06A70DDAA08EC9C
:1024530075F003A424C5F582E93422F583E493C01F
:10246300E0740193F583D082122008AA08AB091205
:1024730016139004BBE0F912161F8A088B09EA7041
:1024830001EB60047C0080A3EEFA74806F809754A4
:10249300207003022569750A007C027D007A2012F0
:1024A30025AD7C0079047A007B001211218A088B08
:1024B3000980187401850882850983A3A3A3A3A3B4
:1024C300A3A3A3A3F0850C08850D09E5087002E515
:1024D30009606E7C007904AA08AB091211218A0CE9
:1024E3008B0D750A01E5082404125A0324FFF0A397
:1024F300E034FF1238147002A3E070C985088285A6
:102503000983A3A3A3A3A3A3A3A3A3A3E064017029
:10251300A2850882850983A3A3A3A3A3A3E05404EC
:1025230070917406850882850983A3A3A3A3A3A33B
:10253300A3A3A3F07AB7850882850983122697801F
:10254300841210F17C0079017A007B00121121EAD8
:102553007001EB7009E50A70057A201248CE7420E9
:102563006EFAEF02242974025FF9E47001E9600A4C
:10257300121217EEFA740202248F74045FF9E470E6
:1025830001E96012124A7B12474D7901122D11EEB7
:10259300FA74046F80CD7A007B008003120C437FB2
:1025A30006020980EAFCEBFD7A017B009004BBE0A4
:1025B300F91217272290151F124CF612109D22C0F4
:1025C30082C08374EA120CA7851082851183AA82C4
:1025D300AB83794B121E237408120ED77402F07466
:1025E30009120ED7AA82AB837950121E23741312D9
:1025F3000ED7124ED7121E4174160245C974F41237
:1026030006B0EAFEEBFF7508018E828F83A3A3A3B6
:10261300A3A3A3E05440600D8E828F83123DC0FAC2
:10262300A3E0FB800312118174FE6A700374FF6BD5
:1026330060308E828F831249531249201211DBE9D5
:102643008E828F836006122685E4800512268574A8
:1026530001123481FAA3E0FB121E47E9F509700564
:1026630080127509CDAA098E828F83122697E9609D
:1026730003750800A908EEFAEFFB1210FDA9090281
:1026830032D5E0240DF8A3E012268F223400F98816
:1026930082898322E0240C124D06F91210972274CA
:1026A300F61206B0E9FEEAFF7A0F7B0012160DEA76
:1026B3007001EB6019740C8A828B83F0EEA3A3F094
:1026C300EF8A828B83A3F01249BB790080027910D1
:1026D30002492BC082C083900475E0640F7016EA30
:1026E3007001EB6010900470E064086005E064041E
:1026F30070031225A70245CC74F41206B074FD12C0
:102703000CA7EAFEEBFF8E828F83A3A3E0F91211DD
:10271300278A088B09EA7001EB70030228428E8234
:102723008F83A3E064F160288E828F83A3E064CD5E
:10273300601E8E828F83A3E0641A60148E828F835F
:10274300A3E064E9600A8E828F83A3E064E1701ED4
:1027530079001210FDE96016850882850983A3A319
:10276300A3A3A3A3E04420F0A3E0F00228118E82E8
:102773008F83A3E0C0E07402120ED7D0E01244CBE3
:102783001251761231AB1256E7851082851183AA56
:1027930082AB83700512100D80031211C38E828FDA
:1027A30083A3E064F160678E828F83A3E064CD60CE
:1027B3005D8E828F83A3E0641A60538E828F83A31E
:1027C300E064E160498E828F83A3E064F0603F742C
:1027D30002120ED7E064B76035850882850983123B
:1027E300284E750A01780A120C197403120ED7E0E9
:1027F300F50A780A120C19EE240C122BF3123BEF94
:10280300A3A3A3A3A3123BE71231E7120C4385084A
:1028130082850983A3A3A3A3A3A3A3A3A3E0640221
:1028230070127406850882850983A3A3A3A3A3A3B7
:10283300A3A3A3F08E828F83A3A3E0F91211031243
:1028430010F19015231225BB0232D0E0F8A3E0F972
:10285300E8FAE9FB2274F41206B0EAFEEBFF75080E
:10286300008E828F83A3A3A3A3A3E060417508080E
:102873008E828F83A3A3A3A3A3A3A3A3A3123DB079
:102883007001EB601075082C8E828F83A3A3A3A322
:10289300A3E0D2E0F08E828F83A3A3A3A3A3E0548B
:1028A3000364016003022931430811022931EE2434
:1028B300181256E46030EE241A1256E4700F1253C5
:1028C300B67003A3E06970667508228061EE241B6D
:1028D300122949241A1248C4EE2419F582EF123C36
:1028E3003B12107980481229367003750801125380
:1028F300B67003A3E0697006E508D2E1F508E508C0
:102903008E828F83A3A36011E07006E508D2E58071
:102913001BE508D2E6F5088003E06012123DBAF920
:102923001211C9E964016006E508C2E0F508A908C7
:102933000232D58E828F83A3A3A3A3A3A3A3A3A3AE
:10294300124BBD640222F582EF1231FC122953228D
:10295300125196EE2274F01206B074DB120CA7EA41
:10296300FEEBFF8E828F83A3A3A3A3E060109015D9
:1029730021E07002A3E060069015211225BB7406C6
:10298300120ED7AC82AD838E828F83122C1D12510F
:1029930088EE241B1253F27413120ED712474D7490
:1029A30006120ED7AA82AB831210A9E9851082857D
:1029B3001183F0740C120ED7E06022741D120ED72F
:1029C300E0FD7407120ED7E0FC8E828F83124CF069
:1029D3007901121F37E96003022BEB80149004582E
:1029E300E0600E851082851183E0A2E14003022B93
:1029F300EB851082851183E0A2E6502E7423120E1C
:102A0300D7123DC06403700E7423120ED7124C709C
:102A1300A3E0640D60147406120ED7AA82AB83126E
:102A230011EDE964017003022BEBEE242C122BF35E
:102A3300122EDA7003A3E069701F7508007808127C
:102A43000C197808120C19EE242EF582EF123C3B78
:102A5300122C0E1231E7120C437409120ED7E0FA4E
:102A630090045EE06A6003022BEB740C120ED7E055
:102A73007003022B32122C0E124CF21212777401D5
:102A8300120ED71249207401120ED7E07002A3E090
:102A93007003022BEB7407120ED7E0F88E828F833C
:102AA300A3A3E028F8A3E03400F9740D28F582E429
:102AB30039F583E0FA7401120ED7122C02E06A6032
:102AC3001D7401120ED7122BFAEAF090874F780883
:102AD300120E757401120ED7122C08120E577904B8
:102AE3007407120ED712517E2AFCA3E034008C82A5
:102AF300F583A3AA82AB831215FB8A088B098C0A80
:102B03008D0B7401120ED7122C02A3780C120E75C2
:102B1300780C7908120E285003022BEB9087437828
:102B230008120D3B7401120ED7122C08120E579087
:102B33000470E064046008E064096003022BEB8521
:102B43001082851183E0A2E55055EE242E1256E43F
:102B5300C0E07403120ED7D0E0F0EE242F1256E437
:102B6300C0E07404120ED7D0E0F0EE24301256E425
:102B7300C0E07405120ED7D0E0F0EE2424122BF33C
:102B8300120A6F7407120ED7AC82AD83740A120E49
:102B9300D7AA82AB831210137404120C438049A288
:102BA300E650457423120ED7124CFC7018741D1294
:102BB3000ED7E0640270317406120ED7AA82AB837B
:102BC3001211B780237423120ED7124C70E06407DE
:102BD3007016741D120ED7E06404700C7406120E86
:102BE300D7AA82AB831211B17425025068EE240B6D
:102BF300F582EF1231FC22A3124C71A3A3A322127C
:102C03004BA7A3A322123F9C780822EE242A123159
:102C1300F912295324121231F922A3A3A3A3E0F931
:102C23008E828F83A3A32274F71206B074F7120C5B
:102C3300A7EAFEEBFF900470E06403600DE064011B
:102C43006008E064096003022D0C8E828F83A3E089
:102C53006003022CE87C007D007A027B00121DF9E0
:102C6300EE2402FAEF1249C41253F890046112479A
:102C73004D7953121E297900122D11900470E064CE
:102C830009600990046E124CF21212717401124918
:102C93004A7404900470F07401120ED7AA82AB83B5
:102CA300794A121E237401120ED7AC82AD837A6661
:102CB3007B04121E119004611251927A037B00125D
:102CC3001DF99004641251927A047B00121DF9904D
:102CD300045BE0A2E35004D2F08002C2F012493058
:102CE3001225B880218E828F83A3AE82AF83FC7DB1
:102CF300007A037B10121DF98E828F83E0F9122D67
:102D030011E4900470F01210D37409023BDF9004B5
:102D13006E124CF612101F22C082C083900440E052
:102D23007002A3E07041900470E0120B25000301D0
:102D33003D2D054C2D065B2D6A2D900448E0700255
:102D4300A3E0607B9004488070900444E07002A389
:102D5300E0606C9004448061900446E07002A3E05C
:102D6300605D9004468052900440E07002A3E060EE
:102D7300051231C2702379009004BC800909EA125C
:102D83005070EB122BF6123AD67001EB70EF9004F1
:102D9300BC124CF21210198026900441122BFBA393
:102DA300A3A3E06402700512120B80139004E4E005
:102DB3007002A3E060099004E41249531220080250
:102DC30045CC74F41206B074FB120CA78A088B0965
:102DD300122EC37001EF7003022EBE74028E828F17
:102DE30083124ED87950121E23850882850983A346
:102DF300E06003022EAC90046EE064FF7004A3E075
:102E030064FF603590046EE064FE7004A3E064FF29
:102E13006027851082851183122EDA7003A3E0697F
:102E2300601774EA850882850983A31232017A6EDA
:102E33007B047950121E29807085108285118312BC
:102E4300546912474D7A617B047953121E2390040F
:102E5300611247447A647B04794B121E237A637BA5
:102E63000479E1121E23900475E0C3940F5022905D
:102E73000463E0C0E07402120ED7D0E0F0740412D1
:102E83000ED77401F07402120ED7AA82AB83121EFE
:102E93003B750A00780A120C19780A120C1990155E
:102EA30042E0F91231DE120C438508828509831250
:102EB3002ED4F074039004701249B274050232D216
:102EC3007A0F7B0012160D8A0A8B0BAE0AAF0BEE3C
:102ED30022A31246FFA32212546DE0682274F21259
:102EE30006B074ED120CA7EAFEEBFF8E828F83A36C
:102EF300123C0A851082851183AC82AD838E828F4A
:102F030083A3A3A3A3122C1D124CEB1210DF851075
:102F130082851183E0706A8E828F83A3A3A3A3A308
:102F2300A3A3A3E0C3940B4058850882850983A318
:102F3300A3A3A3A3A3A3A3E064027045900470E03A
:102F430064026042E06406603D900440E07002A3C6
:102F5300E060051231C2605E900470E064086005B1
:102F6300E06404701C7402120ED7E0F97407120EA9
:102F7300D7AC82AD83850882850983124CE9121090
:102F8300E5741302259F900440E07002A3E07026CD
:102F9300750A00780A120C19780A120C191231A258
:102FA300122BF61231CBFCA3E0FD85088285098341
:102FB3001231E7120C439004BC123FAF9004BCE003
:102FC300F50AA3E0F50B80378E828F83E0F8A31216
:102FD30031CB687003A3E06970198E828F83A3A33A
:102FE300E0FAE508240DF582E5091256E76A700355
:102FF3000230768E0A8F0BEE125070EF123FACEE5A
:103003007001EF70C37A187B0012167F8A0C8B0D48
:10301300AE0CAF0DEE7001EF7003022F849004BC71
:10302300E07002A3E070059004BC800AE50A125028
:1030330070E50B122BF61252EC8E828F831249DD50
:10304300EE240C122BF374FFF0E48E828F83A3A380
:10305300A3A3A3123A37A3A3A31231F0E4F0A3F07E
:10306300E508240B125A03123198123814C4123192
:1030730098A3F07401120ED71249ACF07402120E29
:10308300D71231BAA3F0E508240DF582E509122B16
:10309300F6122ED5A3124AA7A3A3125A1E12474D06
:1030A3007402120ED7E0640160117407120ED7ACDC
:1030B30082AD83EE240D1231B180117C087D00793D
:1030C300FFEE240DFAEF3400FB1215F57412120E05
:1030D300D7E0C0E0EE2415122BF3D0E0F0901542B8
:1030E300E0C0E01231A21248C7D0E0C39A40030205
:1030F3002F841231AB122BF6A3E05480F9E4700154
:10310300E97009900EE1E07003022F847406120E39
:10311300D71231BA700EE070627404120ED7E070E9
:1031230006022F84E060147405120ED7E0C0E0EEAF
:10313300240C1248C4D0E0C39A502B850882850919
:1031430083125A2C12474B1231A21256E7C0E012D7
:103153002BF0D0E0F07405120ED7E0C0E0EE240CA3
:10316300122BF3D0E0F07406120ED7E0600D740159
:103173008E828F83A3A3A3A3A3A3F07404120ED7F9
:10318300E07003022F8474018E828F83A3A3A3A311
:10319300A3F0022F84540F8E828F83A3A3A322E56F
:1031A300082410F582E50922E508240B80F5FAEFDF
:1031B3003400FB121E11221231BE22E00239869026
:1031C3000440123524640122E0F9850882850983CD
:1031D300A3A3A3A3A3A3A3A3A3E02290046E1251CA
:1031E30096900464124CF6121193740222A3F0EE2B
:1031F30024161231F922F582EF3400F58322F07A96
:10320300617B04795312320C22121E297A647B04E7
:10321300794B121E292274F21206B074F8120CA70D
:103223008A0A8B0B8C0C8D0D89088510828511837E
:10323300AC82AD837583877582107408120B71F5A8
:1032430009AC0AAD0B851082851183AA82AB831268
:103253004ED270037509019004BC80158E828F8352
:10326300E0650C7004A3E0650D6023EE2416122BB9
:10327300F3123FAFEE7001EF601FE50960DEAC0AA9
:10328300AD0BEE240DFAEF3400124ED160DD8E82C9
:103293008F83A3A3E0650870D2EEFAEFFB740802F4
:1032A300259F74F71206B09004BCE0FAA3E0800CEB
:1032B300EA2416123FA9121685EEFAEFFBEA700113
:1032C300EB70ED9004BCE4F0A3F0023BE274031254
:1032D3000C437F0402098074F21206B08A0C8B0D32
:1032E300ECFEEDFF890B8A828B831250758A828BE9
:1032F3008312339DEEF8EFF9A30EAF838A828B839B
:10330300A3A3E0C454F0FA88828983E04A1233A865
:103313001246FF1233A3E0333354FCFA8E828F83B9
:10332300E04A1233A3A3E033333354F8FA8E828F87
:1033330083E04AF008EFF9A30EAF83850C828B83F9
:10334300A3A3A3A3A3A3E0A2E0E492E013135480F6
:10335300FA88828983E04AF0E50C2407F508EB122A
:103363004467120C117C081241DE120C43125155B2
:10337300E50C240FF508E50D3400F5097808120C67
:10338300117C031241DE120C43E50BC3940F40077B
:1033930012346A1246F5F00225A2A31246FFF02268
:1033A3001233A8A322F0850C828B83A3A3A32274D8
:1033B300F21206B0EAFEEBFF890B8C0C8D0D8E82A8
:1033C3008F83E08C828D83123A3CAE82AF83E0120E
:1033D300457C123480C412457C123473E054038C50
:1033E300828D8312347EA2E2E492E08C828D83127A
:1033F300347D131313541F12457C12347CA2E7E46B
:1034030092E08C828D83A3A3A3A31234738E088FBF
:1034130009750A007808120C117C087D00E50C245C
:103423000712512B120C431251558E088F0978083D
:10343300120C117C037D00E50C240F12512B120C8E
:1034430043E50BC3940F40148E828F83A3A3A3E0A1
:10345300C0E012346A122BF6D0E0800712346A12ED
:103463002BF6E4F00225A2E50C2412F582E50D22E9
:10347300A3A3123A3C0EAF8322A3A3A3A3A3F08E6C
:10348300828F83E02274F41206B074F9120CA7EA57
:10349300FEEBFF900440E07002A3E0601012351DC4
:1034A30064027009EEFAEFFB121205806890046E55
:1034B300E06E7003A3E06F705C74016960097A8247
:1034C3007B04124ED2704E7A007B029004BBE0F96B
:1034D300121733EA7001EB703C9004717808120EF6
:1034E300758510828511837808120E57900477E052
:1034F300C0E07404120ED7D0E0F07405120ED77436
:1035030001F07406120ED77402124ED8120FE9E9B5
:103513006092120FEF74070232D2900440123524E6
:1035230022123FA0A3A3E02274F61206B0EAFEEB38
:10353300FF8E828F83A3858208858309E0F91210A9
:1035430037850882850983E064EB600A8E828F8366
:10355300A3E064E17007E48E828F83A3F01225B8A1
:103563007508017808120C198E828F83A3E0F50881
:103573007808120C1979001231DE120C431210F183
:1035830002492B74F61206B09004CDE0701F7C0044
:1035930079017A007B00121121EA7001EB600E8A37
:1035A300828B83E07002A3E0600312109102492B27
:1035B300C082C083123A28401079FF12111BE9FA26
:1035C3009023A9E493C39A500479018002790002FD
:1035D30045CC74F11206B08A0A8B0B890E7509006B
:1035E3008A828B83A3A3A3A3A3A3A3A3E0F91211AA
:1035F300278A0C8B0DAE0CAF0D750801EE7001EF31
:1036030060030236AB850A82850B83A3A3A3A3A31E
:10361300A3125192850A82850B83A3A3A3A3A3A319
:10362300A3A3E0F9850A82850B83124CF212110FD2
:103633008A0C8B0DAE0CAF0DEE7001EF70030237E9
:10364300EA8E828F83A3A3A3A3E4F0A3F0E50A2465
:103653000BFAE50B1249C4E0C0E0122BF0D0E0F006
:103663001211E1EE240C124919750901EE2406F832
:10367300EF125A06547FF0A3E054FC12381454049A
:103683006003023731901527E0F50A750B007407C4
:10369300780A120DD38E828F83A3A3A3A3A3A3E0DF
:1036A300450AF0A3E0450BF08E828F83A3A3A3A367
:1036B300A3A3E05480F50AA3E05403F50B74077841
:1036C3000A120E48E50E607974028E828F83A3A3DB
:1036D300A3A312347C240D124D02A2E2500B9004DA
:1036E3005CE0F8122C2012474BE50A70030237B84E
:1036F300EE2406F8EF3400F9E8FAE9FB8A828B83BB
:10370300E0547FFCA3E054FCFD74FF250AF50A7422
:10371300FF3400F50B7407780A120DD3E50A4CF851
:10372300E50B4DF98A828B8312474D0237B88E829F
:103733008F83A3A3A3A3A3A3E04480F0A3E0023653
:10374300AAE50A7005750800806B8E828F83A3A398
:10375300A3A3A3A3E0542060171216078A0A747F59
:10376300550AF8745F288E828F83A3A3A3A38027AF
:103773008E828F83A3A3A3A3A3A3E05410600E128E
:1037830016078A0A740F550AF8740180D88E828F3F
:1037930083A3A3A3A37401F0A3E4F074048E828F24
:1037A30083A3A3A3A3A3A3A3A3A3123A437001EBED
:1037B30070031237F474016509702F8E828F83A30F
:1037C300A3A3A3124F47F9EEFAEFFB121115E96019
:1037D30019EE240C1256E47002A3E06003123801C0
:1037E300EEFAEFFB121685750800A9087F07020998
:1037F300807A207B009004BBE0F912163D22EE2470
:103803000C1231F912380B22E0FAA3E0FB121685F1
:1038130022F088828983E02274F41206B0750800CE
:103823001211278A0A8B0BAE0AAF0BEE7001EF70F1
:10383300030238C08E828F83A3A3A3A3A3A3A3A34E
:10384300A3E0640670771211398E828F83A3A3A33A
:10385300A3A3A3A3E05408F9E47001E9605C8E829A
:103863008F83123BFE7A007B00121109EA7001EB91
:1038730070481238C3121E537C007D007A007B000F
:1038830080228E828F83123BF87004A3E064FF6072
:10389300291238C3121B4DE9641A601E7C007D0097
:1038A300EEFAEFFB1211098A088B09AE08AF09EE95
:1038B3007001EF70CD7900121E597508010229318C
:1038C30090046E124F4D124CF62274F71206B08A12
:1038D300828B83E5827002E58370099004CE8006B3
:1038E3008A828B83A3A3123AD67001EB602C8A825F
:1038F3008B83A3A3A3A3A3A3A3E05408F9E47001B8
:10390300E960DDEC7001ED60158A828B83123DC0A6
:103913006C7003A3E06D70C880047A007B00023BE7
:10392300E274F21206B08A088B09890AECFEEDFFF5
:103933007A0E7B0012167FEA7001EB603EE48A8206
:103943008B83A3A3A3A3A3A3A3A3123981E50A1281
:1039530044B1A3A31252E88A828B83A3A3A3A3E453
:10396300F01239811244AF125176EA240CF582EB3E
:10397300123DAA1244B0A3A3F0A3F00225A212574A
:10398300E680058E828F83A3A3A3A3A3A32274F54A
:103993001206B0EAFEEBFF890A8C088D09EE70016E
:1039A300EF60597401650A7014790112111BE9FA69
:1039B3009023A6E493C39A500F791180637404652E
:1039C3000A7033123A2840F18E828F83A3A3A3A3F4
:1039D300A3A3A3A3A3E50A123A371251748E828FCD
:1039E30083A3A3E4F0A3F09004CEE07002A3E090DD
:1039F30004CE601B800A7402650A60CC79C1802002
:103A0300124F5A7002A3E088828983A3A370F1EE58
:103A1300F0A3EF123A437001EB70031237F479000D
:103A23007F03020980790412111BE9FA9023A5E4AC
:103A330093C39A22123A3CA322F08E828F83A3224D
:103A4300F07A207B009004BBE0F9121733EA22C01E
:103A530082C083E9FC79009004CE801D8A828B8327
:103A6300A3A3A3A3A3A3A3A3A3E06C600574FF6C08
:103A73007001098A828B83A3A3123AD67001EB707B
:103A8300DB0245CC74F71206B08A828B83E5827021
:103A930002E58370099004CE80068A828B83A3A3F8
:103AA300123AD67001EB60248A828B83A3A3A3A36B
:103AB300A3A3A3A3A3E06970E1EC60148A828B83C0
:103AC300E0240D12507FA2E240D080047A007B00F4
:103AD300023BE2124CF6EA22C082C0839004CE80FD
:103AE300068A828B83A3A3123AD67001EB60128AF3
:103AF300828B83A3A3A3A3A3A3A3A3E06970E28000
:103B0300047A007B000245CC1253FCE82274F112C4
:103B130006B08A0A8B0B8C0C8D0D75080075090095
:103B2300EA7001EB602E9004CE80068E828F83A311
:103B3300A3123FAFEE7001EF601AAC0CAD0DEEFABD
:103B4300EFFB850A82850B83122008E9640170DB91
:103B53008E088F09AA08AB090237EF74F71206B073
:103B63009004CE1253F87C007D00800DE8FCE9FD43
:103B730088828983A3A31253F8E87001E96030EACD
:103B8300687002EB6970E59004CE124CF2E86A703B
:103B930002E96B88828983A3A370081253F8900407
:103BA300CE80091253F88C828D83A3A312474D0252
:103BB3003BE274F71206B0EAFEEBFFEE7001EF6032
:103BC30016121133123C147002A3E0600312380181
:103BD300EEFAEFFB121685023BE2741F120C437FD1
:103BE300010209801251968A828B8322E0F98A822C
:103BF3008B8302398C123DC464FF22123DC4FCA3A3
:103C0300E0FD228E828F83A3A3E0F508A3E0F509EC
:103C1300228E828F83E0241C124D0612380C8E8272
:103C23008F8312380BEE240C123C2F22F582EF34D3
:103C330000F583E022F582EB123C32F92274F21292
:103C430006B074FC120CA7EAFEEBFF7508FE7509BB
:103C5300FF1210F7E960057911023D9FEE2415125A
:103C630056E4603790153CE0C43354E0C0E0E033E1
:103C73003354FCFAD0E04AC0E0EE2415122BF3D003
:103C8300E0123A37123DB07001EB600F7508FF1276
:103C93004A93EE24151256E4D2E0F08E828F8312FB
:103CA3004BB76006EE2412123DA7EE24131256E41E
:103CB3007003741EF01256E164017016900FB1E0A8
:103CC300600D900458E0700A8E828F83E0700312B7
:103CD3003DA4EE24141256E4701590044DE0C0E0A8
:103CE300EE2414122BF3D0E0F090044DE004F08E98
:103CF300828F83E064017016EE240B123DBD6402D3
:103D0300700CEE240F1256E44440F0A3E0F085104B
:103D130082851183AC82AD83EEFAEFFB1211518AD7
:103D23000A8B0B74FE6508700474FF64FF70031242
:103D33003C06EA7001EB60608E828F83E0C0E07422
:103D430001120ED7D0E0F07402120ED71252EC74A7
:103D530001120ED785820C85830D780C120C15EE9B
:103D6300240F122BF3120A73EE240E1256E4F50CF1
:103D7300780C120C197405120ED7E0F9AC08AD09D2
:103D830012114B7405120C43E9FE74106E700BAAEA
:103D93000AAB0B12168580027E10EEF9740402251D
:103DA3009FEE2411F582EF1231FCE4F022124CF65F
:103DB30079FF121F8BEA22EE241D1231F9123DC442
:103DC30022124C66E022C082C08374DE120CA78AE2
:103DD300828B83A3A3A3A31253F8740E120ED7E806
:103DE300F0A3E9123E7B740C120ED7123E74240D1D
:103DF300F582EB1256E7C0E0741A120ED7D0E0F04A
:103E0300124F531253F57420120ED7123E74241519
:103E1300F582EB1256E7C0E07408120ED7D0E0F03B
:103E2300EA241CF582EB1253F57412120ED71247D3
:103E33004D74FF851082851183F07401120ED774BF
:103E4300FFF07402120ED774FFF090874F120A6FBF
:103E53007404120ED7AC82AD837407120ED7AA82F4
:103E6300AB831210137404120C43790074220245BD
:103E7300C9E8F0A3E9F0EA22F08A828B83A3A312B4
:103E830053FC2274F01206B074EE120CA7741012D5
:103E93000ED71249208C088D09890B7422120ED774
:103EA300E0F50C7423120ED7123FAF7425120ED710
:103EB300E0F50EA3E0F50F750A107A1E7B001216CB
:103EC3007F7402120ED71249207402120ED7E070CB
:103ED30002A3E07003023F8F851082851183AA82BB
:103EE300AB8379501247D6120ED7123F96A31249CD
:103EF300207402120ED7E0240B1226887402F012EB
:103F03000ED7123F967402F0120ED7124953125174
:103F1300767402120ED7E0241B122688E50BF07488
:103F230002120ED7E0240C122688E50CF07410124E
:103F33000ED71247DF120ED7E0241C12268812492F
:103F4300207408120ED71252EC740A120ED7E50C25
:103F5300F0850E82850F83C082C083740D120ED745
:103F6300AC82AD83D083D0827403120B71F97402D7
:103F7300120ED7AA82AB831210FDE9640170057596
:103F83000A0080087402120ED7123807A90A7412A5
:103F9300025068123F9C02398C123FA022124C6AD5
:103FA30002398CEA240BF582EB1231FCE0FEA3E02C
:103FB300FF2274F01206B0EAFEEBFF8C088D097441
:103FC300088E828F831231F0E0600874108E828F26
:103FD30083A3F0EE24171256E460098E828F83A325
:103FE300E02408F0EE24151256E460088E828F83D5
:103FF300A3E004F08E828F83A3A3A3A3A3A3E06013
:10400300198E828F83A3A3A3A3A3A3A3E0C3332403
:1040130002FA8E828F83A3E02AF01256E1600575BF
:104023000B0E8003750B008E828F83A3E0C0E0EE3E
:10403300240D122BF3D0E0FAE02A250B8C828D831A
:10404300F01256E1600512477A2AF0850882850945
:1040530083E0C3947540030241D1E0FA7B0012165A
:104063007F8A0E8B0FEA7001EB70030241D7EEFAE1
:10407300EFFB121157EA850E82850F83124921EE59
:104083002402F81241EA124209F0EE24040808124D
:1040930041EAA3A3124209A3A3F0EE24131241F5AC
:1040A300F0EE24141241F5A3F0750C08EE24161259
:1040B30056E46013EE241812518FE50E2408FAE536
:1040C3000F1231B3750C10EE24171256E46019EE7B
:1040D300241A12518F850C08E50E2508FAE50F12F4
:1040E30031B37408250CF50C8E828F83A3A3A3A38D
:1040F300A3A3E060728E828F83A3A3A3A3A3A3A32E
:10410300E0C0E0850C08E50E2508F582E50F122BCB
:10411300F6D0E01241FFE0C0E0850C08E50E25086B
:10412300F582E50F122BF6D0E01241FFA3125134B2
:10413300120C118E828F83A3A3A3A3A3A3A3E0C313
:1041430033FCE433FD850C08E50E2508FAE50F1270
:10415300512E120C438E828F83A3A3A3A3A3A3A3E5
:10416300E0C333250CF50CEE24151256E46010C0A1
:10417300E0E50E250CF582E50F122BF6D0E0F012E8
:104183002BF0125134120C11EE240D1256E4FC7D67
:1041930000850B088E828F83A312448AE50828FAD0
:1041A300E4391241E3120C431256E16027EE240D69
:1041B3001256E4FD8E828F83A3E0FCAA0EAB0F7927
:1041C30000121F37E9600DAA0EAB0F121685750E8C
:1041D30000750F00AA0EAB0F02506B7D00EEFAEFD5
:1041E300FB1215E9740322EF125A0A850E82850F1A
:1041F30083221231F9124210A3A3A322F0050C8EDD
:10420300828F83025DC512421B12421022E0850E8B
:1042130082850F83A3A3A322A3A3F088828983A308
:104223002274F61206B0EA2415F582EB1256E76003
:10423300047C0180027C008A828B83E0FE90045E12
:104243001242C574027808120DD3E5084EFEAF0979
:10425300EA24121242BF74067808120DD3E5084E01
:10426300F8E5094FF9ECFDE8FCED49FDEA241112EC
:1042730042BF74097808120DD3E5094DFDEA2416EF
:104283001242BF740B7808120DD3E5094DFDEA24E1
:10429300171242BF740C7808120DD3E5094DFD8A3D
:1042A300828B83A3A3A3A3A3A31242C5740A780892
:1042B300120DD3ECFAE5094DFB02492BF582EB1203
:1042C30031FCE0F5087509002274F01206B074FEA3
:1042D300120CA78A0E8B0FECFEEDFFE98E828F8303
:1042E3001244B112470C850E82850F83A3A3124497
:1042F300851247361244D31244851247251244D3FC
:10430300A3A3E0C0E0EE2411122BF3D0E01244DAB1
:10431300A3A3A3E0C0E0EE2412122BF3D0E01247D4
:104323008C600AE50E2408F8E50F1247538E828F3E
:1043330083A3A3A3A3A3A3A3A3E060218E828F835C
:10434300A385820C85830D12448AEE2415122BF368
:1043530012474D850C82850D83E02408F08E828FF1
:1043630083A3A3A3A3A3E0600F1244968E828F833B
:10437300A3A3A3A3A31244E4EE24181256E4607C7F
:10438300124496C0E0EE2419122BF3D0E01244E459
:10439300F8E50E28F582E50F1256E7C0E0EE241A81
:1043A300122BF3D0E01244E412445DE433FB1244D5
:1043B300B57002A3E060458E828F83A3E0F8E50E1B
:1043C30028F508E50F124467120C11EE2419125652
:1043D300E4C333FCE433FD7403120ED7124CF21220
:1043E30041E4120C4312445D850C82850D83E02A5F
:1043F30012513CEE241B122BF312474D8E828F83F6
:10440300A3E0FA8A08E50E2508F8E50F3400124404
:1044130071123481C39AC0E0EE2417122BF3D0E05B
:10442300125EDEE06031EE2417F508EF3400F50983
:10443300850882F583E024F2F0EE241DF8EF125A8A
:1044430006240EFAA3E03400FB88828983EAF0A3F2
:10445300EB124775C39AF0025066EE2419123C2FF3
:10446300C333FA223400F509750A00780822F9EEFD
:10447300241D12447922F582EF3400F583E8F0A37A
:10448300E922E0FA0241EEE0F8E50E28F8E50F3400
:1044930000F9228E828F83A385820C85830DE0F839
:1044A300E50E28F582E50F123C3222A3A3A3F00206
:1044B3003BEA12167F851082851183EAF0A3EB1283
:1044C30044C6221244CBE022F08510828511832258
:1044D300F0A3E91244DA22F0850E82850F830239B4
:1044E3008CF0850C82850D83E004F02274F41206AF
:1044F300B08A088B09EA124583F0EA1313543F127A
:10450300457CA3A3A3F0EAC41313124583A3A3F02A
:10451300EB124569F08A0A8B0B7409780A120E486C
:10452300E50A124569A3F08A0A8B0B740A780A120A
:104533000E48E50A5401C0E0EC2418F582ED122B75
:10454300F6D0E0F08A0A8B0B740B780A120E48E55A
:104553000A124576F0740C7808120E48E5081245E5
:1045630076A3F00232D512456D2254018C828D83DD
:1045730002398B12456DA3A322540F8C828D8322A3
:1045830054038C828D83A3A322C082C08379008AC3
:10459300828B83A3A3A3A3A3A3E0900458600FE09B
:1045A30070228A828B83A3A3E07019098016E060CE
:1045B300138A828B83124CE9900461E06A7003A32F
:1045C300E06B70E78003120C43D083D082020BF5BB
:1045D30074F31206B08A0A8B0B890CECFEEDFF8A8A
:1045E300828B8312470C850A82850B83A3A3124710
:1045F30003124736124764124703124725124764D2
:10460300A3A3E0C0E0EE2411122BF3D0E012476B1A
:10461300A3A3A3E0C0E0EE2412122BF3D0E01247D1
:104623008C600AE50A2408F8E50B1247538E828F43
:1046330083A3A3A3A3A3A3A3A3E0601B8E828F835F
:10464300A3124713EE2415122BF312474D8508824C
:10465300850983E02408F08E828F83A3A3A3A3A3F9
:10466300E060238E828F83A3858208858309E0F827
:10467300E50A28F582E50B1246F5A3A3F085088227
:10468300850983E004F0EEFAEFFB121169E9705D2E
:104693008E828F83A3A3A3A3A3122ED47025E0FC41
:1046A3008C08E50A2508FAE50B3400FBEE241D12FD
:1046B3004919E50CC39CC0E0EE2417122BF3D0E09C
:1046C300F0802A124713740E28F8E4391244711249
:1046D3004775FCE50CC39C24F2C39AFDEE24171224
:1046E3002BF3EDF0AA0AAB0B7901121F377F0502FA
:1046F30009801231FC1246FFA3A3A322E0025A272A
:10470300E0FA850A82850B8322124CF6121163228A
:10471300858208858309E0F8E50A28F8E50B34006B
:10472300F922A3A3A3A3A3E0F9EAF8EE240B123121
:10473300F9E822A3A3A3E0F9EA8E828F83A3025DA3
:10474300C51253FC8E828F83A3A3E8F0A3E9F02262
:104753003400F9EE2413124479123A3CE02408F0B1
:1047630022F0A3E912476B22F0850A82850B8302AC
:10477300398CF012477A22900459E0F9121ED1E9DC
:10478300FA850882850983E022F074088E828F837C
:10479300A3125EE2A3E022C082C0837AD37B0479B2
:1047A300E2121E237AD37B040245CCC082C08390DD
:1047B3000461124CF20245CCC082C08374FE120C19
:1047C300A7851082851183AA82AB83794B1247D6C2
:1047D3000245C9121E23851082851183124CF6747B
:1047E3000222C082C083794A121E230245CC74F68A
:1047F3001206B09004DBE0FE04F0EEF9121127EA92
:104803007001EB70EEEE60EBF902492B74F01206C7
:10481300B0EAFEEBFF8C0E8D0F89087410120ED7D1
:10482300E0F50D7411120ED7E0F50C7509001212A4
:10483300778A0A8B0BA80AA90BE87001E97013E5C4
:104843000C705DA908AC0EAD0FEEFAEFFB121295DA
:10485300806CE508601FE82402F582E91248C7E589
:10486300082AFAE4340013EA13F070097401888209
:104873008983A3A3F0E50C6045E50D701088828958
:1048830083E0600214F0E49004EAF080319004EADB
:10489300E004F0FA901528E06A702375090180039B
:1048A300E4601BE5096017121181EA6E7002EB6F79
:1048B300700CEEFAEFFB79011210311248CC025062
:1048C3006BF582EF123C32FA227A017B009004BB33
:1048D300E0F912172D22C082C08374016A7001EBC4
:1048E30070077A011237F6801490151F124920EAD7
:1048F3007001EB60051225A780031248CC0245CC5A
:10490300C082C0839015211249200245CCC082C0C9
:104913008390152380F1F582EF3400F583EAF0A349
:10492300EBF022740D120C437F02020980A2F0E423
:1049330092E012493E7952121E2922851082851176
:1049430083F0AA82AB832212493E7942121E2922A6
:10495300124C6222AA82AB831210D97ABE7B0479ED
:1049630045121E292274F71206B074ED120CA7E942
:10497300FE9004BA124D0D12499F7412120ED7EE17
:104983001249948510828511831249577413023B8F
:10499300DFF09014CDE0F97CBE7D04229014CDE0CD
:1049A300F97ABE7B041210DF221231BEA3A322F0D8
:1049B3001249B722EEFAEFFB9004BBE0F912161985
:1049C300223400FB023BEAF582EF124ACD22A3E038
:1049D30088828983F0A308A98322A3A3A3A3A3A303
:1049E300A3A3A374FEF0A374FFF02274F41206B021
:1049F3008A088B097A007B041248D0124A7B12473B
:104A03004D7409900470F01211758A0A8B0BAC0A6D
:104A1300AD0BE5082413F582E509122BF6124CF2CF
:104A2300124ED26401704E122EC37001EF604674B1
:104A3300028E828F83F0E508241DF8E50912268F84
:104A4300124CF28A828B83A3E0FC8A828B83A3A31A
:104A5300E0FBEC8E828F83A3A3F0A3EB123814F850
:104A6300122BFA1246FF124A85FAA3E0FB794A1287
:104A73001E291249B70232D59004421253FC9015F5
:104A83002322A3F0E5082415F582E509123C32221E
:104A9300EE240F123C2F4404F0A3E0F022124AAD9F
:104AA300A3A3A322124AA0A3A322F0850882850907
:104AB30083A3A322EE2417124ACA121175EE241AF5
:104AC3001231F9EA024921F582EF3400F5837401CA
:104AD300F02274F61206B074F3120CA7EAFEEBFF91
:104AE3007C0D7D007900851082851183AA82AB83BA
:104AF3001215F5EE241DF582EF124BA0E0F85420B9
:104B03006008740C120ED77401F0E85480600874C6
:104B13000B120ED77401F0E85440600A740A120EA7
:104B2300D77401F0800A740A120ED7E0640170058D
:104B3300EE24138003EE241512518F7402120ED744
:104B4300AA82AB83121E11122BF0124C5112474D45
:104B5300740A120ED7E064017033124BAC703B122F
:104B630011818A088B09A808A909EE240B1256E4BF
:104B7300687003A3E0697022121175EAFCEBFD74FF
:104B830002120ED7AA82AB83124ED2600D85108219
:104B9300851183AA82AB8312102B0249261231FCA2
:104BA300124BA722124C66A3228E828F83A3A3A348
:104BB300A3A3A3A3A3A3124BBD22E0FAA3E0FB127A
:104BC30011DBE92274F61206B074F3120CA78A08FB
:104BD3008B09ECFEEDFF7C0D7D007900851082854D
:104BE3001183AA82AB83125C55A3A3A3A3A3A3A39C
:104BF300A3A3124C51E8F0A3E9124C57A3E0FAA285
:104C0300E55008740B120ED77401F0EAA2E75008BE
:104C1300740A120ED77401F0EAA2E6EE50042413CC
:104C23008002241512518F7402120ED7AA82AB830D
:104C3300121E11850882850983A3A3E0C0E0740CCA
:104C4300120ED7D0E0124ED8121025024926125365
:104C5300FC0244CCF0EE241D1231F9124C622212F4
:104C63004C6622124C6A22E0F8124C7022A3E0F543
:104C73008388822274F71206B074E1120CA7EAFE4D
:104C8300EBFF8E828F83123520A2E050568E828FE7
:104C9300831228508A828B83A3A3A3A3A3A3E054E4
:104CA300FEF0A3E0124D0D8A828B83E0241B124D8C
:104CB30002F98A828B83E0241CFAA3E01249C4120E
:104CC3004CF212116FE9701B741D120ED7124CFCBB
:104CD3007011851082851183AC82AD83EEFAEFFBF0
:104CE3001211BD023BDDA3A3A3A3A3A3A3A3A312FA
:104CF3004CF622E0FAA3E0FB22123DC46404221224
:104D03004D0622F8A3E0125A0E221244CBAC82AD18
:104D13008322E9FA790074046A600A740A6A6005F6
:104D230074036A700109020BF574F61206B074205D
:104D33008A828B83F07401A3A3F0120FDD8A088BA0
:104D430009AE08AF09EE7001EF600774018E828F20
:104D530083F09004AEE07003124AB7EEFAEFFB0261
:104D6300492BC082C08374019004D0F0E9A2E350C0
:104D7300037403F0E9A2E15004E0D2E2F00245CC6F
:104D830074F61206B079007C008A088B0978081241
:104D9300093AF8FF07B64DB44DB44DB44DB44DAD1B
:104DA3004DB14DB64DAA4D0C80097C0480050C8095
:104DB300F67C089004D0E05C6003098003EC60019A
:104DC3000902492B74F61206B08A828B83E07014B1
:104DD300A3E07002A3E0600C8A828B83124CF11271
:104DE3001F6D80047A007B0002492B74F51206B014
:104DF30074F3120CA7EAFEEBFF8C088D09750A12F7
:104E0300EE7001EF70057900024EC3900461E06E0D
:104E13007003A3E06F7018121175EAFCEBFDAA088A
:104E2300AB09124ED27005750A018003750A00E4BE
:104E3300851082851183F07401120ED7EEF0A3EF73
:104E4300124ED8120F0BE9602B7403120ED7AA82ED
:104E5300AB83120EF3E96401701A750A017403122D
:104E63000ED7AC82AD83AA08AB09124ED26021756E
:104E73000A00801C7412650A70169004ADE0640287
:104E8300700EAC08AD09EEFAEFFB120F29E970DFE3
:104E9300AC08AD09EEFAEFFB12127DE9FA740A6A67
:104EA3007005750A01801774A06A7012AC08AD0909
:104EB300EEFAEFFB121289EEFAEFFB1212A1A90A26
:104EC300740D120C43023A232414FAE93414FB122E
:104ED3001E0BE922E4124EDC22124EE022F0851072
:104EE3008285118302494574F71206B0EAFEEBFF8F
:104EF3007508008E828F83A3A3A3A3A3A3A3A3E018
:104F03006017EE2415122949122BF1124CF21211DB
:104F1300E7E9640170037508018E828F83A3A3A35D
:104F2300A3A3A3A3E06018EE2413122BF3124F479D
:104F3300FAA3E0FB1211E7E964017003750801A904
:104F430008023BE2124F4D0231D3125196025A2707
:104F5300EA240BF582EB221253FC88828983A3A3F4
:104F6300E02274F01206B074F3120CA77403120E4D
:104F7300D7ECF0A3EDF08A0E8B0F890B741D120E84
:104F8300D7E0F50A7E01EE120ED7740AF0E9700736
:104F9300E50AC333240AF0851082851183AA82AB04
:104FA300831211CF8A088B09EA7001EB7003025058
:104FB30060123FA6740912515E450A12516B120E1C
:104FC300D7125144E50B70307A008026EAC333F8D8
:104FD300E433F9741E120ED7E028F8A3E039F988F8
:104FE3008289831250758882898312339DA30EAF01
:104FF300830AEAC3950A40D4E5082417F582E50934
:105003001249CD121175E508241AF582E5091249F2
:105013001C7405120ED7AC82AD83AA0EAB0F120E11
:10502300F9E96021E508125070E5091249CD7405CC
:10503300120ED7A882A983E5082418F582E5091280
:105043002BF612474D850882850983A3A3E50EF04D
:10505300A3E50FF0AA08AB09120FD7E9FEEEF97426
:105063000D80027402120C437F080209802416F596
:1050730082221246FFF0A3AE82AF8322FEA3E03466
:1050830000FF02348274F01206B074FE120CA7857E
:10509300108285118312492089088C0E8D0F74129A
:1050A300120ED7E0F50B900F21E07002A3E06075BC
:1050B300E50BC333F8E433F9740E28FAE439FB1231
:1050C300160D8A0C8B0DAE0CAF0DEE7001EF605513
:1050D30074D48E828F8312513C1247478E828F8302
:1050E300A3A3A3A3E508F0AC0EAD0FEE2405123184
:1050F300B1EE240D122BF3E50BF07413120ED7123D
:105103005134120C11E50BC333FCE433FDEE240ED2
:10511300FAEF12512E120C43EEFAEFFB900F21120D
:105123004953122008025066FAE50D3400FB024190
:10513300E4E0F508A3E00244691244C6F8A3E0F9E9
:1051430022122953FAEFFB12514E22121E11125151
:105153005522EE2408FEEF3400FF228E828F83F067
:10516300A3E50BC43354E022F0A3AE82AF837403F0
:1051730022A3A3E508F0A3E509F022E0FA8E828FCB
:1051830083A3A3E022124CF612115D221231F9120D
:10519300519622E0023C0174F71206B0E9FE7C004E
:1051A3007D0078007900800C12526A2CFCA3E03D4C
:1051B300FD125B90125DE25037E8FAE9FBEA75F005
:1051C30012A4FAAFF075F012EBA42FFBEA249CF5BE
:1051D30082EB3412F583E064FF60D612526A7002E8
:1051E300A3E060CDEE60C112526FE4F0A3F080C182
:1051F30078007900800C1252492CFCA3E03DFD128B
:105203005B90125DD55038E8FAE9FBEA75F017A414
:10521300FAAFF075F017EBA42FFBEA125DD0EB1297
:105223005DA37004A3E064FF60D51252497002A32A
:10523300E060CCEE60C012524EE4F0A3F080C0EC0C
:10524300FAEDFB023BE212524EE022E8FAE9FBEAF6
:1052530075F017A4FA75F017EBA42FFBEA2427F5D2
:1052630082EB3414F5832212526FE022E8FAE9FB51
:10527300EA75F012A4FA75F012EBA42FFBEA24A846
:10528300F582EB3412F5832274F61206B0EAFEEBD4
:10529300FF9004D1801388828983E06E7003A3E0BA
:1052A3006F603F88828983A3A3123B0B7001E9706F
:1052B300E57A047B0012167F8A088B09A808A909DE
:1052C300E87001E9601C888289831252EC9004D152
:1052D300124CF288828983A3A31249209004D1122D
:1052E300474D02492BA3A3A3A3EEF0A3EFF022742F
:1052F300F41206B07E009004D180070E8882898361
:10530300A3A3123B0B7001E970F1EEC333FAE4334C
:10531300FB1253A67001EB70030253A07F009004AD
:10532300D1802488828983125192EFC333FAE43304
:10533300FBE5082AF582E5093BF583ECF0A3EDF0E4
:105343000F88828983A3A3123B0B7001E970D49069
:1053530004B61253C37003A3E06978087019120CE2
:1053630015EEF50A780A120C197C827D04790090F7
:1053730004B61253AF801A120C15EEF50A780A120E
:105383000C197C827D0479009004B6124CF2121140
:10539300F37403120C43AA08AB09121685120FEF1C
:1053A3000232D512167F8A088B09EA22124CF612B2
:1053B30011F9228E828F83A3A3A3A3A3A3A3A3A3E1
:1053C3001253FC900461E06822C082C08380128A79
:1053D300828B83A3A31253F89004D112474D121664
:1053E300859004D1123AD67001EB70E30245CCF5F7
:1053F30082EF1231FC1253FC22E002513F74F61289
:1054030006B090046E123FAF9004DC125469124749
:105413004D7ADC7B047950121E299004DC12294F4B
:10542300FAEFFB12129B9004DC123FAF900F23E0C4
:105433007002A3E0602D7A067B0012160DEA70015C
:10544300EB602074D58A828B83F0E4A3A3F074010C
:105453008A828B831244AE1252E8900F231249536F
:1054630012200802492B12546D22E0F8A3E0F990B0
:10547300046E22C082C0839004DE7429F0A37412E8
:10548300F09004E07423F0A37412F09004E27441EA
:10549300F0A37412F00245CCC082C083900461E093
:1054A30064FE7004A3E064FF600E90045BE0A2E17D
:1054B300500612128312122F1212290245CC74F6CF
:1054C3001206B09004AFE060281216078A08A808F5
:1054D3009004AFE0FA75F0E8A4CAACF075F003A449
:1054E3002CFB747F582AFCE43BFD7A007B011225D8
:1054F300AF02492B74F01206B074FE120CA7750F9D
:1055030000851082851183E4F0A3F0120F477A041B
:105513007900120F23EAFE7A0279011256D87A0330
:1055230079031256D812125FEAF50E2EFF8E0AEA9D
:10553300250AF8E43400F9E87001E97003025638EB
:105543008F0875090074027808120DD3AA08AB09F5
:105553001244B57002A3E070030256368F08750932
:105563000074027808120DD3AC08AD0979FF8510D9
:1055730082851183E0FA1215F57508008056A90893
:10558300120F418A0C8B0DEA7001EB60458A828B06
:1055930083A3A3A3A3E0600464047036050F8A8287
:1055A3008B83A3A3A3A3A3A3A3A3A3A3E0F912128F
:1055B3008F851082851183120A73EFFD850C828516
:1055C3000D83A3A3A3A3A3A3A3A3A3E01256EB1248
:1055D3000C43050885080A9023A2E493F874019309
:1055E300F9C3E50A98E4995006E50FC39E408F7509
:1055F3000800E508C3950E503CAA087B001212650B
:105603008A0C8B0DEA7001EB60258510828511836E
:10561300120A73EA240EF582EB1256E7FEEA240F10
:10562300123C3812128FEFFDEE1256EB120C4305AB
:105633000880BF7F0075096A900459E0600CF91275
:105643001ED1E9FA745CC39AF50975F003E5098480
:10565300F50A851082851183E0F50EA3E0F50F7539
:105663000B00E5096006750B20750900E50AC39F69
:105673005004AE0A8008EFFEE50BD2E6F50BAC0E44
:10568300AD0FAA0BEEF912123BE9F50CE50BA2E6FE
:10569300401F1E750800800EE50E2404F50EE50F6D
:1056A3003400F50F0508E508C39E40ECEECFC39F19
:1056B300FFE97006E50BA2E650A5851082851183EC
:1056C300E07002A3E0600985108285118312380718
:1056D300A90C025066120F23EACEC39EFE22EE24CB
:1056E30011F582EF123C3222FC850C82850D831268
:1056F3004CF612123574022274F21206B0EAFEEB73
:10570300FF8908740E120ED7124CF2750A00750B3E
:1057130000750900800E8A0A8B0BEA2404FAEB3425
:1057230000FB0509E509C39D50218A828B83E06450
:10573300FF7004A3E064FF70158A828B831252EC1E
:10574300EC8A828B831257E1E508F00225A2E50A71
:105753007002E50B600E850A82850B83C3E09EA36E
:10576300E09F50B28A828B831253F8C3EE98EF996D
:1057730050A4EAF8EBF988828983E064FF7004A3FC
:10578300E064FF6010E82404F8E93400F90509E552
:1057930009C39D40E1880A890BE824FCF8E934FF3A
:1057A300F988828983E0F50CA3E0F50D850A8285EB
:1057B3000B83E50CF0A3E50DF0888289831257D59E
:1057C30012421D1257D5A3F0C3EA98EB9940C602C3
:1057D300573CA3A3E0850A82850B83A3A322A312CC
:1057E30057E622A3F08A820233AC74F31206B07434
:1057F300FD120CA789088A09ECFEEDFF750C0175F3
:10580300F003E9A42402C0E07401120ED7D0E01221
:1058130058A67001EB607C124F53122BF61258A05E
:1058230088828983F0741F55084509A3F01259F043
:10583300750900803D8E828F83E088828983F0A37F
:10584300A882A9838E828F831249D18E828F83A3EC
:10585300A3E05407C4C0E08E828F83A3A3A3E054C4
:1058630007FCD0E04C1249D3EE2404FEEF3400FFD2
:105873000509E509C3950840BC8A828B83A3A374F9
:10588300FC1249E8EA2413F582EB1249CD120FD733
:10589300E9F50CA90C7403120C430246F01253FCF5
:1058A3007408221258ABEA22124EE01211CF22746E
:1058B300F11206B08A0A8B0B7508007AFE7BFF7C17
:1058C300FE7DFFE50A241DF582E50B1253F5888260
:1058D3008983A3E0F509741F5509F50C1259F0E506
:1058E3000C600B88828983E0FEA3E0FBEEFA750D62
:1058F30000803088828983E0FCA3E0FFECFEE8248B
:10590300020808E9125A065407F50EA3A882A983D0
:10591300EFFD900461E06E7003A3E06F7003850EEA
:1059230008050DE50DC3950C40C9E508700BA909E1
:10593300121247E970030259ED1259FA125A148AE6
:105943000C8B0DA80CA90DE87001E9600EE48882A8
:105953008983125DBDE508F00259ED7CFF7DFF12DE
:1059630059FA122BF6124CF21212538A0C8B0DAE0B
:105973000CAF0DEE7001EF7033125ED17001EF606A
:10598300697C177D0079001215F51259FA122BF66E
:10599300125A1E12474D90046E125A2CA312474BF3
:1059A300EE240F125EE6EE240E1249CAEE240E1206
:1059B3002BF3E508F0EE240C123DA7EE2402FAEFD8
:1059C3003400FB120EF3E97021850A82850B83A351
:1059D300A3A3A3A3A3A3A3E06010E50A2415F58260
:1059E300E50B12294C24021231B10237EFE82402ED
:1059F3000808E93400F922E50A240BF582E50B22B5
:105A0300F8E509125A0A22125A0E223400F9023812
:105A1300151231FC124CF6120F2F22125A2222E0D9
:105A2300F8A3E0F98E828F8322125A22025DC6C048
:105A330082C08374FE6A700374FF6B700479018003
:105A430034746059646060F5E9A2E5500F90046115
:105A53001253F8C3EC98ED99401980E1A2E6900443
:105A6300615008C3E09AA3E09B80EDC3E09AA3E0F2
:105A73009B50DA79000245CC74F71206B07E0080A1
:105A830004125A960E9023A8E493FAEEC39A40F1B7
:105A9300023BE2EE75F017A42412FAE5F03414FB8E
:105AA30012126B2274F71206B07800790080031289
:105AB3005B909023A8E493FEC3E89EE994005064AE
:105AC300E8FEE9FFEE75F017A4FE85F00875F01700
:105AD300EFA42508125E4FE06A7003A3E06B70CF5A
:105AE300E8FEE9FFEE75F017A4FE75F017EFA425A5
:105AF30008FFEE241CF582EF3414F583E06C700389
:105B0300A3E06D600A74FF6C700374FF6D70A0E80E
:105B130075F017A4F8AAF075F017E9A42AF9E812AA
